{"abi":[{"type":"constructor","inputs":[{"name":"_priceFeed","type":"address","internalType":"address"}],"stateMutability":"nonpayable"},{"type":"function","name":"approveExpense","inputs":[{"name":"id","type":"uint256","internalType":"uint256"}],"outputs":[],"stateMutability":"nonpayable"},{"type":"function","name":"auditors","inputs":[{"name":"","type":"address","internalType":"address"}],"outputs":[{"name":"","type":"bool","internalType":"bool"}],"stateMutability":"view"},{"type":"function","name":"cancelExpense","inputs":[{"name":"id","type":"uint256","internalType":"uint256"}],"outputs":[],"stateMutability":"nonpayable"},{"type":"function","name":"categoryBudget","inputs":[{"name":"","type":"string","internalType":"string"}],"outputs":[{"name":"","type":"uint256","internalType":"uint256"}],"stateMutability":"view"},{"type":"function","name":"categorySpent","inputs":[{"name":"","type":"string","internalType":"string"}],"outputs":[{"name":"","type":"uint256","internalType":"uint256"}],"stateMutability":"view"},{"type":"function","name":"depositFunds","inputs":[],"outputs":[],"stateMutability":"payable"},{"type":"function","name":"executeAfter","inputs":[{"name":"","type":"uint256","internalType":"uint256"}],"outputs":[{"name":"","type":"uint256","internalType":"uint256"}],"stateMutability":"view"},{"type":"function","name":"executeExpense","inputs":[{"name":"id","type":"uint256","internalType":"uint256"}],"outputs":[],"stateMutability":"nonpayable"},{"type":"function","name":"getAmountInUSD","inputs":[{"name":"weiAmount","type":"uint256","internalType":"uint256"}],"outputs":[{"name":"","type":"uint256","internalType":"uint256"}],"stateMutability":"view"},{"type":"function","name":"getCategoryInfo","inputs":[{"name":"category","type":"string","internalType":"string"}],"outputs":[{"name":"budget","type":"uint256","internalType":"uint256"},{"name":"spent","type":"uint256","internalType":"uint256"},{"name":"remaining","type":"uint256","internalType":"uint256"}],"stateMutability":"view"},{"type":"function","name":"getExpense","inputs":[{"name":"id","type":"uint256","internalType":"uint256"}],"outputs":[{"name":"","type":"tuple","internalType":"struct FundShield.Expense","components":[{"name":"id","type":"uint256","internalType":"uint256"},{"name":"requester","type":"address","internalType":"address"},{"name":"receiver","type":"address","internalType":"address"},{"name":"amount","type":"uint256","internalType":"uint256"},{"name":"purpose","type":"string","internalType":"string"},{"name":"category","type":"string","internalType":"string"},{"name":"flagged","type":"bool","internalType":"bool"},{"name":"status","type":"uint8","internalType":"enum FundShield.Status"},{"name":"approver","type":"address","internalType":"address"},{"name":"rejectReason","type":"string","internalType":"string"},{"name":"createdAt","type":"uint256","internalType":"uint256"},{"name":"updatedAt","type":"uint256","internalType":"uint256"},{"name":"approvalCount","type":"uint256","internalType":"uint256"}]}],"stateMutability":"view"},{"type":"function","name":"getExpenses","inputs":[{"name":"start","type":"uint256","internalType":"uint256"},{"name":"count","type":"uint256","internalType":"uint256"}],"outputs":[{"name":"expenses","type":"tuple[]","internalType":"struct FundShield.Expense[]","components":[{"name":"id","type":"uint256","internalType":"uint256"},{"name":"requester","type":"address","internalType":"address"},{"name":"receiver","type":"address","internalType":"address"},{"name":"amount","type":"uint256","internalType":"uint256"},{"name":"purpose","type":"string","internalType":"string"},{"name":"category","type":"string","internalType":"string"},{"name":"flagged","type":"bool","internalType":"bool"},{"name":"status","type":"uint8","internalType":"enum FundShield.Status"},{"name":"approver","type":"address","internalType":"address"},{"name":"rejectReason","type":"string","internalType":"string"},{"name":"createdAt","type":"uint256","internalType":"uint256"},{"name":"updatedAt","type":"uint256","internalType":"uint256"},{"name":"approvalCount","type":"uint256","internalType":"uint256"}]}],"stateMutability":"view"},{"type":"function","name":"getFlaggedExpenses","inputs":[],"outputs":[{"name":"flagged","type":"tuple[]","internalType":"struct FundShield.Expense[]","components":[{"name":"id","type":"uint256","internalType":"uint256"},{"name":"requester","type":"address","internalType":"address"},{"name":"receiver","type":"address","internalType":"address"},{"name":"amount","type":"uint256","internalType":"uint256"},{"name":"purpose","type":"string","internalType":"string"},{"name":"category","type":"string","internalType":"string"},{"name":"flagged","type":"bool","internalType":"bool"},{"name":"status","type":"uint8","internalType":"enum FundShield.Status"},{"name":"approver","type":"address","internalType":"address"},{"name":"rejectReason","type":"string","internalType":"string"},{"name":"createdAt","type":"uint256","internalType":"uint256"},{"name":"updatedAt","type":"uint256","internalType":"uint256"},{"name":"approvalCount","type":"uint256","internalType":"uint256"}]}],"stateMutability":"view"},{"type":"function","name":"getLatestETHPrice","inputs":[],"outputs":[{"name":"","type":"uint256","internalType":"uint256"}],"stateMutability":"view"},{"type":"function","name":"getPendingExpenses","inputs":[],"outputs":[{"name":"pending","type":"tuple[]","internalType":"struct FundShield.Expense[]","components":[{"name":"id","type":"uint256","internalType":"uint256"},{"name":"requester","type":"address","internalType":"address"},{"name":"receiver","type":"address","internalType":"address"},{"name":"amount","type":"uint256","internalType":"uint256"},{"name":"purpose","type":"string","internalType":"string"},{"name":"category","type":"string","internalType":"string"},{"name":"flagged","type":"bool","internalType":"bool"},{"name":"status","type":"uint8","internalType":"enum FundShield.Status"},{"name":"approver","type":"address","internalType":"address"},{"name":"rejectReason","type":"string","internalType":"string"},{"name":"createdAt","type":"uint256","internalType":"uint256"},{"name":"updatedAt","type":"uint256","internalType":"uint256"},{"name":"approvalCount","type":"uint256","internalType":"uint256"}]}],"stateMutability":"view"},{"type":"function","name":"hasApproved","inputs":[{"name":"id","type":"uint256","internalType":"uint256"},{"name":"auditor","type":"address","internalType":"address"}],"outputs":[{"name":"","type":"bool","internalType":"bool"}],"stateMutability":"view"},{"type":"function","name":"largeAmountThresholdUSD","inputs":[],"outputs":[{"name":"","type":"uint256","internalType":"uint256"}],"stateMutability":"view"},{"type":"function","name":"owner","inputs":[],"outputs":[{"name":"","type":"address","internalType":"address"}],"stateMutability":"view"},{"type":"function","name":"priceFeed","inputs":[],"outputs":[{"name":"","type":"address","internalType":"contract AggregatorV3Interface"}],"stateMutability":"view"},{"type":"function","name":"receiverWindowCount","inputs":[{"name":"","type":"address","internalType":"address"}],"outputs":[{"name":"","type":"uint256","internalType":"uint256"}],"stateMutability":"view"},{"type":"function","name":"receiverWindowStart","inputs":[{"name":"","type":"address","internalType":"address"}],"outputs":[{"name":"","type":"uint256","internalType":"uint256"}],"stateMutability":"view"},{"type":"function","name":"rejectExpense","inputs":[{"name":"id","type":"uint256","internalType":"uint256"},{"name":"reason","type":"string","internalType":"string"}],"outputs":[],"stateMutability":"nonpayable"},{"type":"function","name":"requiredApprovals","inputs":[],"outputs":[{"name":"","type":"uint256","internalType":"uint256"}],"stateMutability":"view"},{"type":"function","name":"setAuditor","inputs":[{"name":"auditor","type":"address","internalType":"address"},{"name":"authorized","type":"bool","internalType":"bool"}],"outputs":[],"stateMutability":"nonpayable"},{"type":"function","name":"setCategoryBudget","inputs":[{"name":"category","type":"string","internalType":"string"},{"name":"budget","type":"uint256","internalType":"uint256"}],"outputs":[],"stateMutability":"nonpayable"},{"type":"function","name":"setLargeAmountThresholdUSD","inputs":[{"name":"newThresholdUSD","type":"uint256","internalType":"uint256"}],"outputs":[],"stateMutability":"nonpayable"},{"type":"function","name":"setRequiredApprovals","inputs":[{"name":"newRequired","type":"uint256","internalType":"uint256"}],"outputs":[],"stateMutability":"nonpayable"},{"type":"function","name":"setTimeLockDelay","inputs":[{"name":"newDelay","type":"uint256","internalType":"uint256"}],"outputs":[],"stateMutability":"nonpayable"},{"type":"function","name":"setVelocityThreshold","inputs":[{"name":"newThreshold","type":"uint256","internalType":"uint256"}],"outputs":[],"stateMutability":"nonpayable"},{"type":"function","name":"submitExpense","inputs":[{"name":"receiver","type":"address","internalType":"address"},{"name":"amount","type":"uint256","internalType":"uint256"},{"name":"purpose","type":"string","internalType":"string"},{"name":"category","type":"string","internalType":"string"}],"outputs":[{"name":"id","type":"uint256","internalType":"uint256"}],"stateMutability":"nonpayable"},{"type":"function","name":"timeLockDelay","inputs":[],"outputs":[{"name":"","type":"uint256","internalType":"uint256"}],"stateMutability":"view"},{"type":"function","name":"totalExpenses","inputs":[],"outputs":[{"name":"","type":"uint256","internalType":"uint256"}],"stateMutability":"view"},{"type":"function","name":"velocityThreshold","inputs":[],"outputs":[{"name":"","type":"uint256","internalType":"uint256"}],"stateMutability":"view"},{"type":"event","name":"AuditorUpdated","inputs":[{"name":"auditor","type":"address","indexed":true,"internalType":"address"},{"name":"authorized","type":"bool","indexed":false,"internalType":"bool"}],"anonymous":false},{"type":"event","name":"CategoryBudgetSet","inputs":[{"name":"category","type":"string","indexed":false,"internalType":"string"},{"name":"budget","type":"uint256","indexed":false,"internalType":"uint256"}],"anonymous":false},{"type":"event","name":"CategorySpentUpdated","inputs":[{"name":"category","type":"string","indexed":false,"internalType":"string"},{"name":"spent","type":"uint256","indexed":false,"internalType":"uint256"},{"name":"budget","type":"uint256","indexed":false,"internalType":"uint256"}],"anonymous":false},{"type":"event","name":"ExpenseApproved","inputs":[{"name":"id","type":"uint256","indexed":true,"internalType":"uint256"},{"name":"approver","type":"address","indexed":true,"internalType":"address"}],"anonymous":false},{"type":"event","name":"ExpenseCancelled","inputs":[{"name":"id","type":"uint256","indexed":true,"internalType":"uint256"},{"name":"requester","type":"address","indexed":true,"internalType":"address"}],"anonymous":false},{"type":"event","name":"ExpenseExecuted","inputs":[{"name":"id","type":"uint256","indexed":true,"internalType":"uint256"},{"name":"executor","type":"address","indexed":true,"internalType":"address"},{"name":"amount","type":"uint256","indexed":false,"internalType":"uint256"}],"anonymous":false},{"type":"event","name":"ExpenseRejected","inputs":[{"name":"id","type":"uint256","indexed":true,"internalType":"uint256"},{"name":"approver","type":"address","indexed":true,"internalType":"address"},{"name":"reason","type":"string","indexed":false,"internalType":"string"}],"anonymous":false},{"type":"event","name":"ExpenseSigned","inputs":[{"name":"id","type":"uint256","indexed":true,"internalType":"uint256"},{"name":"auditor","type":"address","indexed":true,"internalType":"address"},{"name":"approvalCount","type":"uint256","indexed":false,"internalType":"uint256"},{"name":"required","type":"uint256","indexed":false,"internalType":"uint256"}],"anonymous":false},{"type":"event","name":"ExpenseSubmitted","inputs":[{"name":"id","type":"uint256","indexed":true,"internalType":"uint256"},{"name":"requester","type":"address","indexed":true,"internalType":"address"},{"name":"receiver","type":"address","indexed":true,"internalType":"address"},{"name":"amount","type":"uint256","indexed":false,"internalType":"uint256"},{"name":"purpose","type":"string","indexed":false,"internalType":"string"},{"name":"category","type":"string","indexed":false,"internalType":"string"},{"name":"flagged","type":"bool","indexed":false,"internalType":"bool"}],"anonymous":false},{"type":"event","name":"FundsDeposited","inputs":[{"name":"sender","type":"address","indexed":true,"internalType":"address"},{"name":"amount","type":"uint256","indexed":false,"internalType":"uint256"}],"anonymous":false},{"type":"event","name":"LargeAmountThresholdUpdated","inputs":[{"name":"oldThreshold","type":"uint256","indexed":false,"internalType":"uint256"},{"name":"newThreshold","type":"uint256","indexed":false,"internalType":"uint256"}],"anonymous":false},{"type":"event","name":"RequiredApprovalsUpdated","inputs":[{"name":"oldRequired","type":"uint256","indexed":false,"internalType":"uint256"},{"name":"newRequired","type":"uint256","indexed":false,"internalType":"uint256"}],"anonymous":false},{"type":"event","name":"TimeLockDelayUpdated","inputs":[{"name":"oldDelay","type":"uint256","indexed":false,"internalType":"uint256"},{"name":"newDelay","type":"uint256","indexed":false,"internalType":"uint256"}],"anonymous":false},{"type":"event","name":"TimeLockSet","inputs":[{"name":"id","type":"uint256","indexed":true,"internalType":"uint256"},{"name":"executeAfter","type":"uint256","indexed":false,"internalType":"uint256"}],"anonymous":false},{"type":"event","name":"VelocityThresholdUpdated","inputs":[{"name":"oldThreshold","type":"uint256","indexed":false,"internalType":"uint256"},{"name":"newThreshold","type":"uint256","indexed":false,"internalType":"uint256"}],"anonymous":false},{"type":"error","name":"AlreadyFinalized","inputs":[{"name":"actual","type":"uint8","internalType":"enum FundShield.Status"}]},{"type":"error","name":"AlreadySigned","inputs":[{"name":"id","type":"uint256","internalType":"uint256"},{"name":"auditor","type":"address","internalType":"address"}]},{"type":"error","name":"CategoryBudgetExceeded","inputs":[{"name":"category","type":"string","internalType":"string"},{"name":"budget","type":"uint256","internalType":"uint256"},{"name":"spent","type":"uint256","internalType":"uint256"},{"name":"requested","type":"uint256","internalType":"uint256"}]},{"type":"error","name":"EmptyReason","inputs":[]},{"type":"error","name":"InsufficientBalance","inputs":[{"name":"balance","type":"uint256","internalType":"uint256"},{"name":"required","type":"uint256","internalType":"uint256"}]},{"type":"error","name":"InvalidExpenseId","inputs":[{"name":"id","type":"uint256","internalType":"uint256"}]},{"type":"error","name":"InvalidQuorum","inputs":[{"name":"required","type":"uint256","internalType":"uint256"}]},{"type":"error","name":"InvalidStatus","inputs":[{"name":"expected","type":"uint8","internalType":"enum FundShield.Status"},{"name":"actual","type":"uint8","internalType":"enum FundShield.Status"}]},{"type":"error","name":"OnlyAuditor","inputs":[]},{"type":"error","name":"OnlyOwner","inputs":[]},{"type":"error","name":"OnlyRequester","inputs":[]},{"type":"error","name":"TimeLockActive","inputs":[{"name":"id","type":"uint256","internalType":"uint256"},{"name":"executeAfter","type":"uint256","internalType":"uint256"},{"name":"currentTime","type":"uint256","internalType":"uint256"}]}],"bytecode":{"object":"0x608060405234801562000010575f80fd5b5060405162002fea38038062002fea833981016040819052620000339162000096565b5f8054336001600160a01b031991821681178355825260056020526040909120805460ff1916600190811790915580549091166001600160a01b039290921691909117815564e8d4a510006002556003908155600b556202a300600c55620000c5565b5f60208284031215620000a7575f80fd5b81516001600160a01b0381168114620000be575f80fd5b9392505050565b612f1780620000d35f395ff3fe6080604052600436106101e6575f3560e01c80637bd35af811610108578063b579e7f11161009d578063cb4079681161006d578063cb407968146105cd578063e2c41dbc146105ec578063f624afc6146105f4578063f66957d014610613578063facab3d81461063e575f80fd5b8063b579e7f114610536578063b797476a14610555578063c49a91fe1461058f578063c85b6df2146105ae575f80fd5b80638da5cb5b116100d85780638da5cb5b146104b957806399c1aadc146104d7578063a6fa8a3a146104ec578063ad3f258c1461050b575f80fd5b80637bd35af814610452578063800cbe971461046657806382dad462146104855780638bbc6446146104a4575f80fd5b806356d06f6b1161017e578063744c57f01161014e578063744c57f0146103df578063777e0d861461040b5780637795024f1461041f57806377a6ccf21461043e575f80fd5b806356d06f6b1461034857806357e10aac1461035d578063735e5db61461037c578063741bef1a146103a8575f80fd5b8063271f4139116101b9578063271f4139146102af5780633dd211c0146102c457806347f9aa9f146102e35780634a112bd714610311575f80fd5b806306d2c5e9146101ea578063222a242e1461023457806322ef441e146102555780632358d5a814610280575b5f80fd5b3480156101f5575f80fd5b5061022161020436600461251b565b805160208183018101805160088252928201919093012091525481565b6040519081526020015b60405180910390f35b34801561023f575f80fd5b5061025361024e3660046125c6565b610652565b005b348015610260575f80fd5b5061022161026f3660046125c6565b600d6020525f908152604090205481565b34801561028b575f80fd5b5061029f61029a3660046125f3565b6106ea565b604051901515815260200161022b565b3480156102ba575f80fd5b50610221600b5481565b3480156102cf575f80fd5b506102536102de366004612662565b610716565b3480156102ee575f80fd5b5061029f6102fd3660046126aa565b60056020525f908152604090205460ff1681565b34801561031c575f80fd5b5061022161032b36600461251b565b805160208183018101805160078252928201919093012091525481565b348015610353575f80fd5b5061022160025481565b348015610368575f80fd5b506102216103773660046125c6565b6107a5565b348015610387575f80fd5b5061039b6103963660046125c6565b6107e4565b60405161022b9190612837565b3480156103b3575f80fd5b506001546103c7906001600160a01b031681565b6040516001600160a01b03909116815260200161022b565b3480156103ea575f80fd5b506103fe6103f9366004612849565b610a91565b60405161022b9190612869565b348015610416575f80fd5b50610221610e2c565b34801561042a575f80fd5b506102536104393660046128c9565b610ebb565b348015610449575f80fd5b506103fe610f43565b34801561045d575f80fd5b50600454610221565b348015610471575f80fd5b506102536104803660046125c6565b611304565b348015610490575f80fd5b5061022161049f366004612902565b6115cf565b3480156104af575f80fd5b50610221600c5481565b3480156104c4575f80fd5b505f546103c7906001600160a01b031681565b3480156104e2575f80fd5b5061022160035481565b3480156104f7575f80fd5b506102536105063660046125c6565b611876565b348015610516575f80fd5b506102216105253660046126aa565b60096020525f908152604090205481565b348015610541575f80fd5b506102536105503660046125c6565b61196b565b348015610560575f80fd5b5061057461056f366004612986565b611bb9565b6040805193845260208401929092529082015260600161022b565b34801561059a575f80fd5b506102536105a93660046125c6565b611c2d565b3480156105b9575f80fd5b506102536105c83660046125c6565b611c95565b3480156105d8575f80fd5b506102536105e73660046125c6565b611cfd565b610253611d65565b3480156105ff575f80fd5b5061025361060e3660046129c5565b611dc5565b34801561061e575f80fd5b5061022161062d3660046126aa565b600a6020525f908152604090205481565b348015610649575f80fd5b506103fe611efe565b5f546001600160a01b0316331461067c57604051635fc483c560e01b815260040160405180910390fd5b805f036106a45760405163a6000bfd60e01b8152600481018290526024015b60405180910390fd5b600380549082905560408051828152602081018490527fcbd3eb803c8088c0677f88231c298df176fddba3dfd2a266ebcc538c71885ef691015b60405180910390a15050565b5f8281526006602090815260408083206001600160a01b038516845290915290205460ff165b92915050565b5f546001600160a01b0316331461074057604051635fc483c560e01b815260040160405180910390fd5b8060078484604051610753929190612a0d565b9081526020016040518091039020819055507f585fe6297c9aff3a556c7f522b722a1f730c496e1c9eb54cbab65585c955de6583838360405161079893929190612a44565b60405180910390a1505050565b5f806107af610e2c565b9050805f036107c057505f92915050565b670de0b6b3a76400006107d38285612a7b565b6107dd9190612a92565b9392505050565b6107ec61249c565b60046107f7836122ea565b8154811061080757610807612ab1565b5f918252602091829020604080516101a081018252600b9093029091018054835260018101546001600160a01b03908116948401949094526002810154909316908201526003820154606082015260048201805491929160808401919061086d90612ac5565b80601f016020809104026020016040519081016040528092919081815260200182805461089990612ac5565b80156108e45780601f106108bb576101008083540402835291602001916108e4565b820191905f5260205f20905b8154815290600101906020018083116108c757829003601f168201915b505050505081526020016005820180546108fd90612ac5565b80601f016020809104026020016040519081016040528092919081815260200182805461092990612ac5565b80156109745780601f1061094b57610100808354040283529160200191610974565b820191905f5260205f20905b81548152906001019060200180831161095757829003601f168201915b5050509183525050600682015460ff808216151560208401526040909201916101009091041660048111156109ab576109ab612706565b60048111156109bc576109bc612706565b815260068201546201000090046001600160a01b031660208201526007820180546040909201916109ec90612ac5565b80601f0160208091040260200160405190810160405280929190818152602001828054610a1890612ac5565b8015610a635780601f10610a3a57610100808354040283529160200191610a63565b820191905f5260205f20905b815481529060010190602001808311610a4657829003601f168201915b505050505081526020016008820154815260200160098201548152602001600a820154815250509050919050565b600454606090808410610ad757604080515f8082526020820190925290610ace565b610abb61249c565b815260200190600190039081610ab35790505b50915050610710565b5f610ae28583612afd565b90505f818510610af25781610af4565b845b90508067ffffffffffffffff811115610b0f57610b0f612507565b604051908082528060200260200182016040528015610b4857816020015b610b3561249c565b815260200190600190039081610b2d5790505b5093505f5b81811015610e22576004610b618289612b10565b81548110610b7157610b71612ab1565b5f918252602091829020604080516101a081018252600b9093029091018054835260018101546001600160a01b039081169484019490945260028101549093169082015260038201546060820152600482018054919291608084019190610bd790612ac5565b80601f0160208091040260200160405190810160405280929190818152602001828054610c0390612ac5565b8015610c4e5780601f10610c2557610100808354040283529160200191610c4e565b820191905f5260205f20905b815481529060010190602001808311610c3157829003601f168201915b50505050508152602001600582018054610c6790612ac5565b80601f0160208091040260200160405190810160405280929190818152602001828054610c9390612ac5565b8015610cde5780601f10610cb557610100808354040283529160200191610cde565b820191905f5260205f20905b815481529060010190602001808311610cc157829003601f168201915b5050509183525050600682015460ff80821615156020840152604090920191610100909104166004811115610d1557610d15612706565b6004811115610d2657610d26612706565b815260068201546201000090046001600160a01b03166020820152600782018054604090920191610d5690612ac5565b80601f0160208091040260200160405190810160405280929190818152602001828054610d8290612ac5565b8015610dcd5780601f10610da457610100808354040283529160200191610dcd565b820191905f5260205f20905b815481529060010190602001808311610db057829003601f168201915b505050505081526020016008820154815260200160098201548152602001600a82015481525050858281518110610e0657610e06612ab1565b602002602001018190525080610e1b90612b23565b9050610b4d565b5050505092915050565b5f8060015f9054906101000a90046001600160a01b03166001600160a01b031663feaf968c6040518163ffffffff1660e01b815260040160a060405180830381865afa158015610e7e573d5f803e3d5ffd5b505050506040513d601f19601f82011682018060405250810190610ea29190612b54565b5050509150505f8113610eb6575f91505090565b919050565b5f546001600160a01b03163314610ee557604051635fc483c560e01b815260040160405180910390fd5b6001600160a01b0382165f81815260056020908152604091829020805460ff191685151590811790915591519182527f586ddd46d982976bec1e4d9a834af85e45533be873df97fdba8c75e9e2f65672910160405180910390a25050565b6004546060905f805b82811015610f9e5760048181548110610f6757610f67612ab1565b5f91825260209091206006600b90920201015460ff1615610f8e57610f8b82612b23565b91505b610f9781612b23565b9050610f4c565b508067ffffffffffffffff811115610fb857610fb8612507565b604051908082528060200260200182016040528015610ff157816020015b610fde61249c565b815260200190600190039081610fd65790505b5092505f805b838110156112fd576004818154811061101257611012612ab1565b5f91825260209091206006600b90920201015460ff16156112ed576004818154811061104057611040612ab1565b5f918252602091829020604080516101a081018252600b9093029091018054835260018101546001600160a01b0390811694840194909452600281015490931690820152600382015460608201526004820180549192916080840191906110a690612ac5565b80601f01602080910402602001604051908101604052809291908181526020018280546110d290612ac5565b801561111d5780601f106110f45761010080835404028352916020019161111d565b820191905f5260205f20905b81548152906001019060200180831161110057829003601f168201915b5050505050815260200160058201805461113690612ac5565b80601f016020809104026020016040519081016040528092919081815260200182805461116290612ac5565b80156111ad5780601f10611184576101008083540402835291602001916111ad565b820191905f5260205f20905b81548152906001019060200180831161119057829003601f168201915b5050509183525050600682015460ff808216151560208401526040909201916101009091041660048111156111e4576111e4612706565b60048111156111f5576111f5612706565b815260068201546201000090046001600160a01b0316602082015260078201805460409092019161122590612ac5565b80601f016020809104026020016040519081016040528092919081815260200182805461125190612ac5565b801561129c5780601f106112735761010080835404028352916020019161129c565b820191905f5260205f20905b81548152906001019060200180831161127f57829003601f168201915b505050505081526020016008820154815260200160098201548152602001600a820154815250508583806112cf90612b23565b9450815181106112e1576112e1612ab1565b60200260200101819052505b6112f681612b23565b9050610ff7565b5050505090565b5f546001600160a01b0316331461132e57604051635fc483c560e01b815260040160405180910390fd5b5f600461133a836122ea565b8154811061134a5761134a612ab1565b5f9182526020909120600b90910201905060016006820154610100900460ff16600481111561137b5761137b612706565b146113af5760018160060160019054906101000a900460ff1660405163f924664d60e01b815260040161069b929190612ba0565b5f828152600d602052604090205480158015906113cb57508042105b156113f95760405163a262924760e01b8152600481018490526024810182905242604482015260640161069b565b816003015447101561142d57600382015460405163cf47918160e01b8152476004820152602481019190915260440161069b565b60068201805461ff001916610200179055426009830155600382015460405160089061145d906005860190612bbb565b90815260200160405180910390205f8282546114799190612b10565b90915550506040517fee9e2679bc4231f61f398af4926aa82bcc987a2f3bd3036afb225b3cc95572fa9060058401906008906114b6908390612bbb565b9081526020016040518091039020546007856005016040516114d89190612bbb565b908152604051908190036020018120546114f3939291612c2d565b60405180910390a1600282015460038301546040515f926001600160a01b031691908381818185875af1925050503d805f811461154b576040519150601f19603f3d011682016040523d82523d5f602084013e611550565b606091505b505090508061158157600383015460405163cf47918160e01b8152476004820152602481019190915260440161069b565b336001600160a01b0316847fb98e60b39b21c12eaf272178a4b9ae91ae7b4c66bd80c976aaf2a0a02d6f996485600301546040516115c191815260200190565b60405180910390a350505050565b5f6115d987612315565b5f6115e887878787878d61239b565b905060048054905091506004604051806101a00160405280848152602001336001600160a01b031681526020018a6001600160a01b0316815260200189815260200188888080601f0160208091040260200160405190810160405280939291908181526020018383808284375f92019190915250505090825250604080516020601f8901819004810282018101909252878152918101919088908890819084018382808284375f920182905250938552505050841515602083015260409091019081525f60208083018290526040805180830182528381528185015242606080860182905260808087019290925260a0909501849052865460018181018955978552938390208651600b909502019384559185015195830180546001600160a01b039788166001600160a01b03199182161790915590850151600284018054919097169116179094559082015160038201559181015190919060048201906117509082612d0c565b5060a082015160058201906117659082612d0c565b5060c082015160068201805491151560ff1983168117825560e08501519261ff001990911661ffff19909116176101008360048111156117a7576117a7612706565b02179055506101008201516006820180546001600160a01b03909216620100000262010000600160b01b031990921691909117905561012082015160078201906117f19082612d0c565b506101408201518160080155610160820151816009015561018082015181600a01555050876001600160a01b0316336001600160a01b0316837f28d784f7fe69a1e130fc408de40b792f79bd050bbc3f189dd78a41cbeaf7735f8a8a8a8a8a8960405161186396959493929190612dc8565b60405180910390a4509695505050505050565b5f6004611882836122ea565b8154811061189257611892612ab1565b5f91825260209091206001600b90920201908101549091506001600160a01b031633146118d25760405163379b487b60e11b815260040160405180910390fd5b5f6006820154610100900460ff1660048111156118f1576118f1612706565b14611924575f8160060160019054906101000a900460ff1660405163f924664d60e01b815260040161069b929190612ba0565b60068101805461ff001916610400179055426009820155604051339083907f79334ff99c7f8593acd83817c4d73f0dedc07a3e6574d2bb1015b33d140f7e25905f90a35050565b335f9081526005602052604090205460ff1661199a5760405163f87c866960e01b815260040160405180910390fd5b5f60046119a6836122ea565b815481106119b6576119b6612ab1565b5f91825260208220600b9091020191506006820154610100900460ff1660048111156119e4576119e4612706565b14611a17575f8160060160019054906101000a900460ff1660405163f924664d60e01b815260040161069b929190612ba0565b5f82815260066020908152604080832033845290915290205460ff1615611a5a5760405163f4d7089960e01b81526004810183905233602482015260440161069b565b5f8281526006602090815260408083203384529091528120805460ff19166001908117909155600a8301805491929091611a95908490612b10565b9091555050426009820155600a810154600354604080519283526020830191909152339184917ff3003623f7fb706d4039476f30205f1c83d1e98fafaccf0a2df5210c34724449910160405180910390a360035481600a015410611bb557600681018054610100600160b01b031981163362010000029081176101001790925560ff9081169116178015611b2a57505f600c54115b15611b8857600c54611b3c9042612b10565b5f838152600d6020526040908190208290555183917fef07468083f9a65f90bc913867cb9c094d414319f187636f677f128ed1983d5d91611b7f91815260200190565b60405180910390a25b604051339083907fe162d266e792d6e0f285a2273576dbe93b2fbcd9499160acece9637353977cc3905f90a35b5050565b5f805f60078585604051611bce929190612a0d565b908152602001604051809103902054925060088585604051611bf1929190612a0d565b90815260200160405180910390205491505f83118015611c1057508183115b611c1a575f611c24565b611c248284612afd565b90509250925092565b5f546001600160a01b03163314611c5757604051635fc483c560e01b815260040160405180910390fd5b600c80549082905560408051828152602081018490527fd84347196614d31dad145eabc95ced1a869c98471f432430673a86ad1ef5b9e391016106de565b5f546001600160a01b03163314611cbf57604051635fc483c560e01b815260040160405180910390fd5b600b80549082905560408051828152602081018490527f93d9930aa7f6580991a5fb61081d5a96310fc72cc5b94dea0b756fd4c78f852a91016106de565b5f546001600160a01b03163314611d2757604051635fc483c560e01b815260040160405180910390fd5b600280549082905560408051828152602081018490527f4f3d5fbe9be88b3880b488c3471b39c304d9375db993fb41fcfe851eafb57ae791016106de565b345f03611d8e5760405163cf47918160e01b81524760048201526001602482015260440161069b565b60405134815233907f543ba50a5eec5e6178218e364b1d0f396157b3c8fa278522c2cb7fd99407d4749060200160405180910390a2565b335f9081526005602052604090205460ff16611df45760405163f87c866960e01b815260040160405180910390fd5b5f819003611e155760405163db72b02360e01b815260040160405180910390fd5b5f6004611e21856122ea565b81548110611e3157611e31612ab1565b5f91825260208220600b9091020191506006820154610100900460ff166004811115611e5f57611e5f612706565b14611e92575f8160060160019054906101000a900460ff1660405163f924664d60e01b815260040161069b929190612ba0565b600681018054620100003302610100600160b01b03199091161761030017905560078101611ec1838583612e0a565b50426009820155604051339085907f0356f347c980667c00cb19d90f81a18335b569a541e9e8bbf0dab74df055e50e906115c19087908790612ec6565b6004546060905f805b82811015611f72575f60048281548110611f2357611f23612ab1565b905f5260205f2090600b020160060160019054906101000a900460ff166004811115611f5157611f51612706565b03611f6257611f5f82612b23565b91505b611f6b81612b23565b9050611f07565b508067ffffffffffffffff811115611f8c57611f8c612507565b604051908082528060200260200182016040528015611fc557816020015b611fb261249c565b815260200190600190039081611faa5790505b5092505f805b838110156112fd575f60048281548110611fe757611fe7612ab1565b905f5260205f2090600b020160060160019054906101000a900460ff16600481111561201557612015612706565b036122da576004818154811061202d5761202d612ab1565b5f918252602091829020604080516101a081018252600b9093029091018054835260018101546001600160a01b03908116948401949094526002810154909316908201526003820154606082015260048201805491929160808401919061209390612ac5565b80601f01602080910402602001604051908101604052809291908181526020018280546120bf90612ac5565b801561210a5780601f106120e15761010080835404028352916020019161210a565b820191905f5260205f20905b8154815290600101906020018083116120ed57829003601f168201915b5050505050815260200160058201805461212390612ac5565b80601f016020809104026020016040519081016040528092919081815260200182805461214f90612ac5565b801561219a5780601f106121715761010080835404028352916020019161219a565b820191905f5260205f20905b81548152906001019060200180831161217d57829003601f168201915b5050509183525050600682015460ff808216151560208401526040909201916101009091041660048111156121d1576121d1612706565b60048111156121e2576121e2612706565b815260068201546201000090046001600160a01b0316602082015260078201805460409092019161221290612ac5565b80601f016020809104026020016040519081016040528092919081815260200182805461223e90612ac5565b80156122895780601f1061226057610100808354040283529160200191612289565b820191905f5260205f20905b81548152906001019060200180831161226c57829003601f168201915b505050505081526020016008820154815260200160098201548152602001600a820154815250508583806122bc90612b23565b9450815181106122ce576122ce612ab1565b60200260200101819052505b6122e381612b23565b9050611fcb565b6004545f908210612311576040516314e7867960e21b81526004810183905260240161069b565b5090565b6001600160a01b0381165f908152600a602052604090205461233a8162093a80612b10565b421061236a57506001600160a01b03165f908152600a602090815260408083204290556009909152902060019055565b6001600160a01b0382165f908152600960205260408120805460019290612392908490612b10565b90915550505050565b5f865f036123ab57506001612492565b5f8590036123bb57506001612492565b5f6123c5886107a5565b90505f811180156123d7575060025481115b156123e6576001915050612492565b5f600786866040516123f9929190612a0d565b90815260200160405180910390205490505f811180156124435750808960088888604051612428929190612a0d565b9081526020016040518091039020546124419190612b10565b115b1561245357600192505050612492565b5f600b5411801561247c5750600b546001600160a01b0385165f90815260096020526040902054115b1561248c57600192505050612492565b5f925050505b9695505050505050565b604080516101a0810182525f8082526020820181905291810182905260608082018390526080820181905260a082015260c081018290529060e082019081526020015f6001600160a01b03168152602001606081526020015f81526020015f81526020015f81525090565b634e487b7160e01b5f52604160045260245ffd5b5f6020828403121561252b575f80fd5b813567ffffffffffffffff80821115612542575f80fd5b818401915084601f830112612555575f80fd5b81358181111561256757612567612507565b604051601f8201601f19908116603f0116810190838211818310171561258f5761258f612507565b816040528281528760208487010111156125a7575f80fd5b826020860160208301375f928101602001929092525095945050505050565b5f602082840312156125d6575f80fd5b5035919050565b80356001600160a01b0381168114610eb6575f80fd5b5f8060408385031215612604575f80fd5b82359150612614602084016125dd565b90509250929050565b5f8083601f84011261262d575f80fd5b50813567ffffffffffffffff811115612644575f80fd5b60208301915083602082850101111561265b575f80fd5b9250929050565b5f805f60408486031215612674575f80fd5b833567ffffffffffffffff81111561268a575f80fd5b6126968682870161261d565b909790965060209590950135949350505050565b5f602082840312156126ba575f80fd5b6107dd826125dd565b5f81518084525f5b818110156126e7576020818501810151868301820152016126cb565b505f602082860101526020601f19601f83011685010191505092915050565b634e487b7160e01b5f52602160045260245ffd5b6005811061273657634e487b7160e01b5f52602160045260245ffd5b9052565b5f6101a082518452602083015161275c60208601826001600160a01b03169052565b50604083015161277760408601826001600160a01b03169052565b50606083015160608501526080830151816080860152612799828601826126c3565b91505060a083015184820360a08601526127b382826126c3565b91505060c08301516127c960c086018215159052565b5060e08301516127dc60e086018261271a565b50610100838101516001600160a01b031690850152610120808401518583038287015261280983826126c3565b6101408681015190880152610160808701519088015261018095860151959096019490945250929392505050565b602081525f6107dd602083018461273a565b5f806040838503121561285a575f80fd5b50508035926020909101359150565b5f602080830181845280855180835260408601915060408160051b87010192508387015f5b828110156128bc57603f198886030184526128aa85835161273a565b9450928501929085019060010161288e565b5092979650505050505050565b5f80604083850312156128da575f80fd5b6128e3836125dd565b9150602083013580151581146128f7575f80fd5b809150509250929050565b5f805f805f8060808789031215612917575f80fd5b612920876125dd565b955060208701359450604087013567ffffffffffffffff80821115612943575f80fd5b61294f8a838b0161261d565b90965094506060890135915080821115612967575f80fd5b5061297489828a0161261d565b979a9699509497509295939492505050565b5f8060208385031215612997575f80fd5b823567ffffffffffffffff8111156129ad575f80fd5b6129b98582860161261d565b90969095509350505050565b5f805f604084860312156129d7575f80fd5b83359250602084013567ffffffffffffffff8111156129f4575f80fd5b612a008682870161261d565b9497909650939450505050565b818382375f9101908152919050565b81835281816020850137505f828201602090810191909152601f909101601f19169091010190565b604081525f612a57604083018587612a1c565b9050826020830152949350505050565b634e487b7160e01b5f52601160045260245ffd5b808202811582820484141761071057610710612a67565b5f82612aac57634e487b7160e01b5f52601260045260245ffd5b500490565b634e487b7160e01b5f52603260045260245ffd5b600181811c90821680612ad957607f821691505b602082108103612af757634e487b7160e01b5f52602260045260245ffd5b50919050565b8181038181111561071057610710612a67565b8082018082111561071057610710612a67565b5f60018201612b3457612b34612a67565b5060010190565b805169ffffffffffffffffffff81168114610eb6575f80fd5b5f805f805f60a08688031215612b68575f80fd5b612b7186612b3b565b9450602086015193506040860151925060608601519150612b9460808701612b3b565b90509295509295909350565b60408101612bae828561271a565b6107dd602083018461271a565b5f808354612bc881612ac5565b60018281168015612be05760018114612bf557612c21565b60ff1984168752821515830287019450612c21565b875f526020805f205f5b85811015612c185781548a820152908401908201612bff565b50505082870194505b50929695505050505050565b606081525f808554612c3e81612ac5565b806060860152608060018084165f8114612c5f5760018114612c7957612ca7565b60ff1985168884015283151560051b880183019550612ca7565b8a5f526020805f205f5b86811015612c9e5781548b8201870152908401908201612c83565b8a018501975050505b505050505060208301949094525060400152919050565b601f821115612d07575f81815260208120601f850160051c81016020861015612ce45750805b601f850160051c820191505b81811015612d0357828155600101612cf0565b5050505b505050565b815167ffffffffffffffff811115612d2657612d26612507565b612d3a81612d348454612ac5565b84612cbe565b602080601f831160018114612d6d575f8415612d565750858301515b5f19600386901b1c1916600185901b178555612d03565b5f85815260208120601f198616915b82811015612d9b57888601518255948401946001909101908401612d7c565b5085821015612db857878501515f19600388901b60f8161c191681555b5050505050600190811b01905550565b868152608060208201525f612de1608083018789612a1c565b8281036040840152612df4818688612a1c565b9150508215156060830152979650505050505050565b67ffffffffffffffff831115612e2257612e22612507565b612e3683612e308354612ac5565b83612cbe565b5f601f841160018114612e67575f8515612e505750838201355b5f19600387901b1c1916600186901b178355612ebf565b5f83815260209020601f19861690835b82811015612e975786850135825560209485019460019092019101612e77565b5086821015612eb3575f1960f88860031b161c19848701351681555b505060018560011b0183555b5050505050565b602081525f612ed9602083018486612a1c565b94935050505056fea2646970667358221220580c9f7676670060d33b513f7e451d628ea877e626d275290b258e80a7a5d5ce64736f6c63430008140033","linkReferences":{}},"methodIdentifiers":{"approveExpense(uint256)":"b579e7f1","auditors(address)":"47f9aa9f","cancelExpense(uint256)":"a6fa8a3a","categoryBudget(string)":"4a112bd7","categorySpent(string)":"06d2c5e9","depositFunds()":"e2c41dbc","executeAfter(uint256)":"22ef441e","executeExpense(uint256)":"800cbe97","getAmountInUSD(uint256)":"57e10aac","getCategoryInfo(string)":"b797476a","getExpense(uint256)":"735e5db6","getExpenses(uint256,uint256)":"744c57f0","getFlaggedExpenses()":"77a6ccf2","getLatestETHPrice()":"777e0d86","getPendingExpenses()":"facab3d8","hasApproved(uint256,address)":"2358d5a8","largeAmountThresholdUSD()":"56d06f6b","owner()":"8da5cb5b","priceFeed()":"741bef1a","receiverWindowCount(address)":"ad3f258c","receiverWindowStart(address)":"f66957d0","rejectExpense(uint256,string)":"f624afc6","requiredApprovals()":"99c1aadc","setAuditor(address,bool)":"7795024f","setCategoryBudget(string,uint256)":"3dd211c0","setLargeAmountThresholdUSD(uint256)":"cb407968","setRequiredApprovals(uint256)":"222a242e","setTimeLockDelay(uint256)":"c49a91fe","setVelocityThreshold(uint256)":"c85b6df2","submitExpense(address,uint256,string,string)":"82dad462","timeLockDelay()":"8bbc6446","totalExpenses()":"7bd35af8","velocityThreshold()":"271f4139"},"id":19}