{"abi":[{"type":"constructor","inputs":[{"name":"_priceFeed","type":"address","internalType":"address"}],"stateMutability":"nonpayable"},{"type":"function","name":"approveExpense","inputs":[{"name":"id","type":"uint256","internalType":"uint256"}],"outputs":[],"stateMutability":"nonpayable"},{"type":"function","name":"auditors","inputs":[{"name":"","type":"address","internalType":"address"}],"outputs":[{"name":"","type":"bool","internalType":"bool"}],"stateMutability":"view"},{"type":"function","name":"cancelExpense","inputs":[{"name":"id","type":"uint256","internalType":"uint256"}],"outputs":[],"stateMutability":"nonpayable"},{"type":"function","name":"categoryBudget","inputs":[{"name":"","type":"string","internalType":"string"}],"outputs":[{"name":"","type":"uint256","internalType":"uint256"}],"stateMutability":"view"},{"type":"function","name":"categorySpent","inputs":[{"name":"","type":"string","internalType":"string"}],"outputs":[{"name":"","type":"uint256","internalType":"uint256"}],"stateMutability":"view"},{"type":"function","name":"depositFunds","inputs":[],"outputs":[],"stateMutability":"payable"},{"type":"function","name":"executeAfter","inputs":[{"name":"","type":"uint256","internalType":"uint256"}],"outputs":[{"name":"","type":"uint256","internalType":"uint256"}],"stateMutability":"view"},{"type":"function","name":"executeExpense","inputs":[{"name":"id","type":"uint256","internalType":"uint256"}],"outputs":[],"stateMutability":"nonpayable"},{"type":"function","name":"getAmountInUSD","inputs":[{"name":"weiAmount","type":"uint256","internalType":"uint256"}],"outputs":[{"name":"","type":"uint256","internalType":"uint256"}],"stateMutability":"view"},{"type":"function","name":"getCategoryInfo","inputs":[{"name":"category","type":"string","internalType":"string"}],"outputs":[{"name":"budget","type":"uint256","internalType":"uint256"},{"name":"spent","type":"uint256","internalType":"uint256"},{"name":"remaining","type":"uint256","internalType":"uint256"}],"stateMutability":"view"},{"type":"function","name":"getExpense","inputs":[{"name":"id","type":"uint256","internalType":"uint256"}],"outputs":[{"name":"","type":"tuple","internalType":"struct FundShield.Expense","components":[{"name":"id","type":"uint256","internalType":"uint256"},{"name":"requester","type":"address","internalType":"address"},{"name":"receiver","type":"address","internalType":"address"},{"name":"amount","type":"uint256","internalType":"uint256"},{"name":"purpose","type":"string","internalType":"string"},{"name":"category","type":"string","internalType":"string"},{"name":"flagged","type":"bool","internalType":"bool"},{"name":"status","type":"uint8","internalType":"enum FundShield.Status"},{"name":"approver","type":"address","internalType":"address"},{"name":"rejectReason","type":"string","internalType":"string"},{"name":"createdAt","type":"uint256","internalType":"uint256"},{"name":"updatedAt","type":"uint256","internalType":"uint256"},{"name":"approvalCount","type":"uint256","internalType":"uint256"}]}],"stateMutability":"view"},{"type":"function","name":"getExpenses","inputs":[{"name":"start","type":"uint256","internalType":"uint256"},{"name":"count","type":"uint256","internalType":"uint256"}],"outputs":[{"name":"expenses","type":"tuple[]","internalType":"struct FundShield.Expense[]","components":[{"name":"id","type":"uint256","internalType":"uint256"},{"name":"requester","type":"address","internalType":"address"},{"name":"receiver","type":"address","internalType":"address"},{"name":"amount","type":"uint256","internalType":"uint256"},{"name":"purpose","type":"string","internalType":"string"},{"name":"category","type":"string","internalType":"string"},{"name":"flagged","type":"bool","internalType":"bool"},{"name":"status","type":"uint8","internalType":"enum FundShield.Status"},{"name":"approver","type":"address","internalType":"address"},{"name":"rejectReason","type":"string","internalType":"string"},{"name":"createdAt","type":"uint256","internalType":"uint256"},{"name":"updatedAt","type":"uint256","internalType":"uint256"},{"name":"approvalCount","type":"uint256","internalType":"uint256"}]}],"stateMutability":"view"},{"type":"function","name":"getFlaggedExpenses","inputs":[],"outputs":[{"name":"flagged","type":"tuple[]","internalType":"struct FundShield.Expense[]","components":[{"name":"id","type":"uint256","internalType":"uint256"},{"name":"requester","type":"address","internalType":"address"},{"name":"receiver","type":"address","internalType":"address"},{"name":"amount","type":"uint256","internalType":"uint256"},{"name":"purpose","type":"string","internalType":"string"},{"name":"category","type":"string","internalType":"string"},{"name":"flagged","type":"bool","internalType":"bool"},{"name":"status","type":"uint8","internalType":"enum FundShield.Status"},{"name":"approver","type":"address","internalType":"address"},{"name":"rejectReason","type":"string","internalType":"string"},{"name":"createdAt","type":"uint256","internalType":"uint256"},{"name":"updatedAt","type":"uint256","internalType":"uint256"},{"name":"approvalCount","type":"uint256","internalType":"uint256"}]}],"stateMutability":"view"},{"type":"function","name":"getLatestETHPrice","inputs":[],"outputs":[{"name":"","type":"uint256","internalType":"uint256"}],"stateMutability":"view"},{"type":"function","name":"getPendingExpenses","inputs":[],"outputs":[{"name":"pending","type":"tuple[]","internalType":"struct FundShield.Expense[]","components":[{"name":"id","type":"uint256","internalType":"uint256"},{"name":"requester","type":"address","internalType":"address"},{"name":"receiver","type":"address","internalType":"address"},{"name":"amount","type":"uint256","internalType":"uint256"},{"name":"purpose","type":"string","internalType":"string"},{"name":"category","type":"string","internalType":"string"},{"name":"flagged","type":"bool","internalType":"bool"},{"name":"status","type":"uint8","internalType":"enum FundShield.Status"},{"name":"approver","type":"address","internalType":"address"},{"name":"rejectReason","type":"string","internalType":"string"},{"name":"createdAt","type":"uint256","internalType":"uint256"},{"name":"updatedAt","type":"uint256","internalType":"uint256"},{"name":"approvalCount","type":"uint256","internalType":"uint256"}]}],"stateMutability":"view"},{"type":"function","name":"hasApproved","inputs":[{"name":"id","type":"uint256","internalType":"uint256"},{"name":"auditor","type":"address","internalType":"address"}],"outputs":[{"name":"","type":"bool","internalType":"bool"}],"stateMutability":"view"},{"type":"function","name":"largeAmountThresholdUSD","inputs":[],"outputs":[{"name":"","type":"uint256","internalType":"uint256"}],"stateMutability":"view"},{"type":"function","name":"owner","inputs":[],"outputs":[{"name":"","type":"address","internalType":"address"}],"stateMutability":"view"},{"type":"function","name":"priceFeed","inputs":[],"outputs":[{"name":"","type":"address","internalType":"contract AggregatorV3Interface"}],"stateMutability":"view"},{"type":"function","name":"receiverWindowCount","inputs":[{"name":"","type":"address","internalType":"address"}],"outputs":[{"name":"","type":"uint256","internalType":"uint256"}],"stateMutability":"view"},{"type":"function","name":"receiverWindowStart","inputs":[{"name":"","type":"address","internalType":"address"}],"outputs":[{"name":"","type":"uint256","internalType":"uint256"}],"stateMutability":"view"},{"type":"function","name":"rejectExpense","inputs":[{"name":"id","type":"uint256","internalType":"uint256"},{"name":"reason","type":"string","internalType":"string"}],"outputs":[],"stateMutability":"nonpayable"},{"type":"function","name":"requiredApprovals","inputs":[],"outputs":[{"name":"","type":"uint256","internalType":"uint256"}],"stateMutability":"view"},{"type":"function","name":"setAuditor","inputs":[{"name":"auditor","type":"address","internalType":"address"},{"name":"authorized","type":"bool","internalType":"bool"}],"outputs":[],"stateMutability":"nonpayable"},{"type":"function","name":"setCategoryBudget","inputs":[{"name":"category","type":"string","internalType":"string"},{"name":"budget","type":"uint256","internalType":"uint256"}],"outputs":[],"stateMutability":"nonpayable"},{"type":"function","name":"setLargeAmountThresholdUSD","inputs":[{"name":"newThresholdUSD","type":"uint256","internalType":"uint256"}],"outputs":[],"stateMutability":"nonpayable"},{"type":"function","name":"setRequiredApprovals","inputs":[{"name":"newRequired","type":"uint256","internalType":"uint256"}],"outputs":[],"stateMutability":"nonpayable"},{"type":"function","name":"setTimeLockDelay","inputs":[{"name":"newDelay","type":"uint256","internalType":"uint256"}],"outputs":[],"stateMutability":"nonpayable"},{"type":"function","name":"setVelocityThreshold","inputs":[{"name":"newThreshold","type":"uint256","internalType":"uint256"}],"outputs":[],"stateMutability":"nonpayable"},{"type":"function","name":"submitExpense","inputs":[{"name":"receiver","type":"address","internalType":"address"},{"name":"amount","type":"uint256","internalType":"uint256"},{"name":"purpose","type":"string","internalType":"string"},{"name":"category","type":"string","internalType":"string"}],"outputs":[{"name":"id","type":"uint256","internalType":"uint256"}],"stateMutability":"nonpayable"},{"type":"function","name":"timeLockDelay","inputs":[],"outputs":[{"name":"","type":"uint256","internalType":"uint256"}],"stateMutability":"view"},{"type":"function","name":"totalExpenses","inputs":[],"outputs":[{"name":"","type":"uint256","internalType":"uint256"}],"stateMutability":"view"},{"type":"function","name":"velocityThreshold","inputs":[],"outputs":[{"name":"","type":"uint256","internalType":"uint256"}],"stateMutability":"view"},{"type":"event","name":"AuditorUpdated","inputs":[{"name":"auditor","type":"address","indexed":true,"internalType":"address"},{"name":"authorized","type":"bool","indexed":false,"internalType":"bool"}],"anonymous":false},{"type":"event","name":"CategoryBudgetSet","inputs":[{"name":"category","type":"string","indexed":false,"internalType":"string"},{"name":"budget","type":"uint256","indexed":false,"internalType":"uint256"}],"anonymous":false},{"type":"event","name":"CategorySpentUpdated","inputs":[{"name":"category","type":"string","indexed":false,"internalType":"string"},{"name":"spent","type":"uint256","indexed":false,"internalType":"uint256"},{"name":"budget","type":"uint256","indexed":false,"internalType":"uint256"}],"anonymous":false},{"type":"event","name":"ExpenseApproved","inputs":[{"name":"id","type":"uint256","indexed":true,"internalType":"uint256"},{"name":"approver","type":"address","indexed":true,"internalType":"address"}],"anonymous":false},{"type":"event","name":"ExpenseCancelled","inputs":[{"name":"id","type":"uint256","indexed":true,"internalType":"uint256"},{"name":"requester","type":"address","indexed":true,"internalType":"address"}],"anonymous":false},{"type":"event","name":"ExpenseExecuted","inputs":[{"name":"id","type":"uint256","indexed":true,"internalType":"uint256"},{"name":"executor","type":"address","indexed":true,"internalType":"address"},{"name":"amount","type":"uint256","indexed":false,"internalType":"uint256"}],"anonymous":false},{"type":"event","name":"ExpenseRejected","inputs":[{"name":"id","type":"uint256","indexed":true,"internalType":"uint256"},{"name":"approver","type":"address","indexed":true,"internalType":"address"},{"name":"reason","type":"string","indexed":false,"internalType":"string"}],"anonymous":false},{"type":"event","name":"ExpenseSigned","inputs":[{"name":"id","type":"uint256","indexed":true,"internalType":"uint256"},{"name":"auditor","type":"address","indexed":true,"internalType":"address"},{"name":"approvalCount","type":"uint256","indexed":false,"internalType":"uint256"},{"name":"required","type":"uint256","indexed":false,"internalType":"uint256"}],"anonymous":false},{"type":"event","name":"ExpenseSubmitted","inputs":[{"name":"id","type":"uint256","indexed":true,"internalType":"uint256"},{"name":"requester","type":"address","indexed":true,"internalType":"address"},{"name":"receiver","type":"address","indexed":true,"internalType":"address"},{"name":"amount","type":"uint256","indexed":false,"internalType":"uint256"},{"name":"purpose","type":"string","indexed":false,"internalType":"string"},{"name":"category","type":"string","indexed":false,"internalType":"string"},{"name":"flagged","type":"bool","indexed":false,"internalType":"bool"}],"anonymous":false},{"type":"event","name":"FundsDeposited","inputs":[{"name":"sender","type":"address","indexed":true,"internalType":"address"},{"name":"amount","type":"uint256","indexed":false,"internalType":"uint256"}],"anonymous":false},{"type":"event","name":"LargeAmountThresholdUpdated","inputs":[{"name":"oldThreshold","type":"uint256","indexed":false,"internalType":"uint256"},{"name":"newThreshold","type":"uint256","indexed":false,"internalType":"uint256"}],"anonymous":false},{"type":"event","name":"RequiredApprovalsUpdated","inputs":[{"name":"oldRequired","type":"uint256","indexed":false,"internalType":"uint256"},{"name":"newRequired","type":"uint256","indexed":false,"internalType":"uint256"}],"anonymous":false},{"type":"event","name":"TimeLockDelayUpdated","inputs":[{"name":"oldDelay","type":"uint256","indexed":false,"internalType":"uint256"},{"name":"newDelay","type":"uint256","indexed":false,"internalType":"uint256"}],"anonymous":false},{"type":"event","name":"TimeLockSet","inputs":[{"name":"id","type":"uint256","indexed":true,"internalType":"uint256"},{"name":"executeAfter","type":"uint256","indexed":false,"internalType":"uint256"}],"anonymous":false},{"type":"event","name":"VelocityThresholdUpdated","inputs":[{"name":"oldThreshold","type":"uint256","indexed":false,"internalType":"uint256"},{"name":"newThreshold","type":"uint256","indexed":false,"internalType":"uint256"}],"anonymous":false},{"type":"error","name":"AlreadyFinalized","inputs":[{"name":"actual","type":"uint8","internalType":"enum FundShield.Status"}]},{"type":"error","name":"AlreadySigned","inputs":[{"name":"id","type":"uint256","internalType":"uint256"},{"name":"auditor","type":"address","internalType":"address"}]},{"type":"error","name":"CategoryBudgetExceeded","inputs":[{"name":"category","type":"string","internalType":"string"},{"name":"budget","type":"uint256","internalType":"uint256"},{"name":"spent","type":"uint256","internalType":"uint256"},{"name":"requested","type":"uint256","internalType":"uint256"}]},{"type":"error","name":"EmptyReason","inputs":[]},{"type":"error","name":"InsufficientBalance","inputs":[{"name":"balance","type":"uint256","internalType":"uint256"},{"name":"required","type":"uint256","internalType":"uint256"}]},{"type":"error","name":"InvalidExpenseId","inputs":[{"name":"id","type":"uint256","internalType":"uint256"}]},{"type":"error","name":"InvalidQuorum","inputs":[{"name":"required","type":"uint256","internalType":"uint256"}]},{"type":"error","name":"InvalidStatus","inputs":[{"name":"expected","type":"uint8","internalType":"enum FundShield.Status"},{"name":"actual","type":"uint8","internalType":"enum FundShield.Status"}]},{"type":"error","name":"OnlyAuditor","inputs":[]},{"type":"error","name":"OnlyOwner","inputs":[]},{"type":"error","name":"OnlyRequester","inputs":[]},{"type":"error","name":"TimeLockActive","inputs":[{"name":"id","type":"uint256","internalType":"uint256"},{"name":"executeAfter","type":"uint256","internalType":"uint256"},{"name":"currentTime","type":"uint256","internalType":"uint256"}]}],"bytecode":{"object":"0x608060405234801561000f575f5ffd5b50604051614cac380380614cac8339818101604052810190610031919061018f565b335f5f6101000a81548173ffffffffffffffffffffffffffffffffffffffff021916908373ffffffffffffffffffffffffffffffffffffffff160217905550600160055f3373ffffffffffffffffffffffffffffffffffffffff1673ffffffffffffffffffffffffffffffffffffffff1681526020019081526020015f205f6101000a81548160ff0219169083151502179055508060015f6101000a81548173ffffffffffffffffffffffffffffffffffffffff021916908373ffffffffffffffffffffffffffffffffffffffff16021790555064e8d4a5100060028190555060016003819055506003600b819055506202a300600c81905550506101ba565b5f5ffd5b5f73ffffffffffffffffffffffffffffffffffffffff82169050919050565b5f61015e82610135565b9050919050565b61016e81610154565b8114610178575f5ffd5b50565b5f8151905061018981610165565b92915050565b5f602082840312156101a4576101a3610131565b5b5f6101b18482850161017b565b91505092915050565b614ae5806101c75f395ff3fe6080604052600436106101ed575f3560e01c80637bd35af81161010c578063b579e7f11161009f578063cb4079681161006e578063cb40796814610741578063e2c41dbc14610769578063f624afc614610773578063f66957d01461079b578063facab3d8146107d7576101ed565b8063b579e7f11461068b578063b797476a146106b3578063c49a91fe146106f1578063c85b6df214610719576101ed565b80638da5cb5b116100db5780638da5cb5b146105d357806399c1aadc146105fd578063a6fa8a3a14610627578063ad3f258c1461064f576101ed565b80637bd35af81461051b578063800cbe971461054557806382dad4621461056d5780638bbc6446146105a9576101ed565b806356d06f6b11610184578063744c57f011610153578063744c57f014610463578063777e0d861461049f5780637795024f146104c957806377a6ccf2146104f1576101ed565b806356d06f6b1461039757806357e10aac146103c1578063735e5db6146103fd578063741bef1a14610439576101ed565b8063271f4139116101c0578063271f4139146102cd5780633dd211c0146102f757806347f9aa9f1461031f5780634a112bd71461035b576101ed565b806306d2c5e9146101f1578063222a242e1461022d57806322ef441e146102555780632358d5a814610291575b5f5ffd5b3480156101fc575f5ffd5b506102176004803603810190610212919061373f565b610801565b604051610224919061379e565b60405180910390f35b348015610238575f5ffd5b50610253600480360381019061024e91906137e1565b61082e565b005b348015610260575f5ffd5b5061027b600480360381019061027691906137e1565b610941565b604051610288919061379e565b60405180910390f35b34801561029c575f5ffd5b506102b760048036038101906102b29190613866565b610956565b6040516102c491906138be565b60405180910390f35b3480156102d8575f5ffd5b506102e16109b8565b6040516102ee919061379e565b60405180910390f35b348015610302575f5ffd5b5061031d60048036038101906103189190613934565b6109be565b005b34801561032a575f5ffd5b5061034560048036038101906103409190613991565b610aa8565b60405161035291906138be565b60405180910390f35b348015610366575f5ffd5b50610381600480360381019061037c919061373f565b610ac5565b60405161038e919061379e565b60405180910390f35b3480156103a2575f5ffd5b506103ab610af2565b6040516103b8919061379e565b60405180910390f35b3480156103cc575f5ffd5b506103e760048036038101906103e291906137e1565b610af8565b6040516103f4919061379e565b60405180910390f35b348015610408575f5ffd5b50610423600480360381019061041e91906137e1565b610b3c565b6040516104309190613be0565b60405180910390f35b348015610444575f5ffd5b5061044d610eb5565b60405161045a9190613c5b565b60405180910390f35b34801561046e575f5ffd5b5061048960048036038101906104849190613c74565b610eda565b6040516104969190613e91565b60405180910390f35b3480156104aa575f5ffd5b506104b361136d565b6040516104c0919061379e565b60405180910390f35b3480156104d4575f5ffd5b506104ef60048036038101906104ea9190613edb565b61141b565b005b3480156104fc575f5ffd5b50610505611546565b6040516105129190613e91565b60405180910390f35b348015610526575f5ffd5b5061052f6119e5565b60405161053c919061379e565b60405180910390f35b348015610550575f5ffd5b5061056b600480360381019061056691906137e1565b6119f1565b005b348015610578575f5ffd5b50610593600480360381019061058e9190613f19565b611e08565b6040516105a0919061379e565b60405180910390f35b3480156105b4575f5ffd5b506105bd6121ab565b6040516105ca919061379e565b60405180910390f35b3480156105de575f5ffd5b506105e76121b1565b6040516105f49190613fcb565b60405180910390f35b348015610608575f5ffd5b506106116121d5565b60405161061e919061379e565b60405180910390f35b348015610632575f5ffd5b5061064d600480360381019061064891906137e1565b6121db565b005b34801561065a575f5ffd5b5061067560048036038101906106709190613991565b612398565b604051610682919061379e565b60405180910390f35b348015610696575f5ffd5b506106b160048036038101906106ac91906137e1565b6123ad565b005b3480156106be575f5ffd5b506106d960048036038101906106d49190613fe4565b6127b6565b6040516106e89392919061402f565b60405180910390f35b3480156106fc575f5ffd5b50610717600480360381019061071291906137e1565b61282d565b005b348015610724575f5ffd5b5061073f600480360381019061073a91906137e1565b6128fc565b005b34801561074c575f5ffd5b50610767600480360381019061076291906137e1565b6129cb565b005b610771612a9a565b005b34801561077e575f5ffd5b5061079960048036038101906107949190614064565b612b31565b005b3480156107a6575f5ffd5b506107c160048036038101906107bc9190613991565b612d88565b6040516107ce919061379e565b60405180910390f35b3480156107e2575f5ffd5b506107eb612d9d565b6040516107f89190613e91565b60405180910390f35b6008818051602081018201805184825260208301602085012081835280955050505050505f915090505481565b5f5f9054906101000a900473ffffffffffffffffffffffffffffffffffffffff1673ffffffffffffffffffffffffffffffffffffffff163373ffffffffffffffffffffffffffffffffffffffff16146108b3576040517f5fc483c500000000000000000000000000000000000000000000000000000000815260040160405180910390fd5b5f81036108f757806040517fa6000bfd0000000000000000000000000000000000000000000000000000000081526004016108ee919061379e565b60405180910390fd5b5f6003549050816003819055507fcbd3eb803c8088c0677f88231c298df176fddba3dfd2a266ebcc538c71885ef681836040516109359291906140c1565b60405180910390a15050565b600d602052805f5260405f205f915090505481565b5f60065f8481526020019081526020015f205f8373ffffffffffffffffffffffffffffffffffffffff1673ffffffffffffffffffffffffffffffffffffffff1681526020019081526020015f205f9054906101000a900460ff16905092915050565b600b5481565b5f5f9054906101000a900473ffffffffffffffffffffffffffffffffffffffff1673ffffffffffffffffffffffffffffffffffffffff163373ffffffffffffffffffffffffffffffffffffffff1614610a43576040517f5fc483c500000000000000000000000000000000000000000000000000000000815260040160405180910390fd5b8060078484604051610a56929190614116565b9081526020016040518091039020819055507f585fe6297c9aff3a556c7f522b722a1f730c496e1c9eb54cbab65585c955de65838383604051610a9b9392919061416a565b60405180910390a1505050565b6005602052805f5260405f205f915054906101000a900460ff1681565b6007818051602081018201805184825260208301602085012081835280955050505050505f915090505481565b60025481565b5f5f610b0261136d565b90505f8103610b14575f915050610b37565b670de0b6b3a76400008184610b2991906141c7565b610b339190614235565b9150505b919050565b610b4461353e565b6004610b4f83613288565b81548110610b6057610b5f614265565b5b905f5260205f2090600b0201604051806101a00160405290815f8201548152602001600182015f9054906101000a900473ffffffffffffffffffffffffffffffffffffffff1673ffffffffffffffffffffffffffffffffffffffff1673ffffffffffffffffffffffffffffffffffffffff168152602001600282015f9054906101000a900473ffffffffffffffffffffffffffffffffffffffff1673ffffffffffffffffffffffffffffffffffffffff1673ffffffffffffffffffffffffffffffffffffffff16815260200160038201548152602001600482018054610c45906142bf565b80601f0160208091040260200160405190810160405280929190818152602001828054610c71906142bf565b8015610cbc5780601f10610c9357610100808354040283529160200191610cbc565b820191905f5260205f20905b815481529060010190602001808311610c9f57829003601f168201915b50505050508152602001600582018054610cd5906142bf565b80601f0160208091040260200160405190810160405280929190818152602001828054610d01906142bf565b8015610d4c5780601f10610d2357610100808354040283529160200191610d4c565b820191905f5260205f20905b815481529060010190602001808311610d2f57829003601f168201915b50505050508152602001600682015f9054906101000a900460ff161515151581526020016006820160019054906101000a900460ff166004811115610d9457610d93613a49565b5b6004811115610da657610da5613a49565b5b81526020016006820160029054906101000a900473ffffffffffffffffffffffffffffffffffffffff1673ffffffffffffffffffffffffffffffffffffffff1673ffffffffffffffffffffffffffffffffffffffff168152602001600782018054610e10906142bf565b80601f0160208091040260200160405190810160405280929190818152602001828054610e3c906142bf565b8015610e875780601f10610e5e57610100808354040283529160200191610e87565b820191905f5260205f20905b815481529060010190602001808311610e6a57829003601f168201915b505050505081526020016008820154815260200160098201548152602001600a820154815250509050919050565b60015f9054906101000a900473ffffffffffffffffffffffffffffffffffffffff1681565b60605f6004805490509050808410610f48575f67ffffffffffffffff811115610f0657610f0561361b565b5b604051908082528060200260200182016040528015610f3f57816020015b610f2c61353e565b815260200190600190039081610f245790505b50915050611367565b5f8482610f5591906142ef565b90505f818510610f655781610f67565b845b90508067ffffffffffffffff811115610f8357610f8261361b565b5b604051908082528060200260200182016040528015610fbc57816020015b610fa961353e565b815260200190600190039081610fa15790505b5093505f5f90505b818110156113625760048188610fda9190614322565b81548110610feb57610fea614265565b5b905f5260205f2090600b0201604051806101a00160405290815f8201548152602001600182015f9054906101000a900473ffffffffffffffffffffffffffffffffffffffff1673ffffffffffffffffffffffffffffffffffffffff1673ffffffffffffffffffffffffffffffffffffffff168152602001600282015f9054906101000a900473ffffffffffffffffffffffffffffffffffffffff1673ffffffffffffffffffffffffffffffffffffffff1673ffffffffffffffffffffffffffffffffffffffff168152602001600382015481526020016004820180546110d0906142bf565b80601f01602080910402602001604051908101604052809291908181526020018280546110fc906142bf565b80156111475780601f1061111e57610100808354040283529160200191611147565b820191905f5260205f20905b81548152906001019060200180831161112a57829003601f168201915b50505050508152602001600582018054611160906142bf565b80601f016020809104026020016040519081016040528092919081815260200182805461118c906142bf565b80156111d75780601f106111ae576101008083540402835291602001916111d7565b820191905f5260205f20905b8154815290600101906020018083116111ba57829003601f168201915b50505050508152602001600682015f9054906101000a900460ff161515151581526020016006820160019054906101000a900460ff16600481111561121f5761121e613a49565b5b600481111561123157611230613a49565b5b81526020016006820160029054906101000a900473ffffffffffffffffffffffffffffffffffffffff1673ffffffffffffffffffffffffffffffffffffffff1673ffffffffffffffffffffffffffffffffffffffff16815260200160078201805461129b906142bf565b80601f01602080910402602001604051908101604052809291908181526020018280546112c7906142bf565b80156113125780601f106112e957610100808354040283529160200191611312565b820191905f5260205f20905b8154815290600101906020018083116112f557829003601f168201915b505050505081526020016008820154815260200160098201548152602001600a8201548152505085828151811061134c5761134b614265565b5b6020026020010181905250806001019050610fc4565b505050505b92915050565b5f5f60015f9054906101000a900473ffffffffffffffffffffffffffffffffffffffff1673ffffffffffffffffffffffffffffffffffffffff1663feaf968c6040518163ffffffff1660e01b815260040160a060405180830381865afa1580156113d9573d5f5f3e3d5ffd5b505050506040513d601f19601f820116820180604052508101906113fd91906143db565b5050509150505f8113611413575f915050611418565b809150505b90565b5f5f9054906101000a900473ffffffffffffffffffffffffffffffffffffffff1673ffffffffffffffffffffffffffffffffffffffff163373ffffffffffffffffffffffffffffffffffffffff16146114a0576040517f5fc483c500000000000000000000000000000000000000000000000000000000815260040160405180910390fd5b8060055f8473ffffffffffffffffffffffffffffffffffffffff1673ffffffffffffffffffffffffffffffffffffffff1681526020019081526020015f205f6101000a81548160ff0219169083151502179055508173ffffffffffffffffffffffffffffffffffffffff167f586ddd46d982976bec1e4d9a834af85e45533be873df97fdba8c75e9e2f656728260405161153a91906138be565b60405180910390a25050565b60605f60048054905090505f5f5f90505b828110156115ac576004818154811061157357611572614265565b5b905f5260205f2090600b02016006015f9054906101000a900460ff16156115a1578161159e90614452565b91505b806001019050611557565b508067ffffffffffffffff8111156115c7576115c661361b565b5b60405190808252806020026020018201604052801561160057816020015b6115ed61353e565b8152602001906001900390816115e55790505b5092505f5f5f90505b838110156119de576004818154811061162557611624614265565b5b905f5260205f2090600b02016006015f9054906101000a900460ff16156119d3576004818154811061165a57611659614265565b5b905f5260205f2090600b0201604051806101a00160405290815f8201548152602001600182015f9054906101000a900473ffffffffffffffffffffffffffffffffffffffff1673ffffffffffffffffffffffffffffffffffffffff1673ffffffffffffffffffffffffffffffffffffffff168152602001600282015f9054906101000a900473ffffffffffffffffffffffffffffffffffffffff1673ffffffffffffffffffffffffffffffffffffffff1673ffffffffffffffffffffffffffffffffffffffff1681526020016003820154815260200160048201805461173f906142bf565b80601f016020809104026020016040519081016040528092919081815260200182805461176b906142bf565b80156117b65780601f1061178d576101008083540402835291602001916117b6565b820191905f5260205f20905b81548152906001019060200180831161179957829003601f168201915b505050505081526020016005820180546117cf906142bf565b80601f01602080910402602001604051908101604052809291908181526020018280546117fb906142bf565b80156118465780601f1061181d57610100808354040283529160200191611846565b820191905f5260205f20905b81548152906001019060200180831161182957829003601f168201915b50505050508152602001600682015f9054906101000a900460ff161515151581526020016006820160019054906101000a900460ff16600481111561188e5761188d613a49565b5b60048111156118a05761189f613a49565b5b81526020016006820160029054906101000a900473ffffffffffffffffffffffffffffffffffffffff1673ffffffffffffffffffffffffffffffffffffffff1673ffffffffffffffffffffffffffffffffffffffff16815260200160078201805461190a906142bf565b80601f0160208091040260200160405190810160405280929190818152602001828054611936906142bf565b80156119815780601f1061195857610100808354040283529160200191611981565b820191905f5260205f20905b81548152906001019060200180831161196457829003601f168201915b505050505081526020016008820154815260200160098201548152602001600a820154815250508583806119b490614452565b9450815181106119c7576119c6614265565b5b60200260200101819052505b806001019050611609565b5050505090565b5f600480549050905090565b5f5f9054906101000a900473ffffffffffffffffffffffffffffffffffffffff1673ffffffffffffffffffffffffffffffffffffffff163373ffffffffffffffffffffffffffffffffffffffff1614611a76576040517f5fc483c500000000000000000000000000000000000000000000000000000000815260040160405180910390fd5b5f6004611a8283613288565b81548110611a9357611a92614265565b5b905f5260205f2090600b0201905060016004811115611ab557611ab4613a49565b5b8160060160019054906101000a900460ff166004811115611ad957611ad8613a49565b5b14611b2f5760018160060160019054906101000a900460ff166040517ff924664d000000000000000000000000000000000000000000000000000000008152600401611b269291906144a8565b60405180910390fd5b5f600d5f8481526020019081526020015f205490505f81118015611b5257508042105b15611b98578281426040517fa2629247000000000000000000000000000000000000000000000000000000008152600401611b8f9392919061402f565b60405180910390fd5b8160030154471015611be7574782600301546040517fcf479181000000000000000000000000000000000000000000000000000000008152600401611bde9291906140c1565b60405180910390fd5b60028260060160016101000a81548160ff02191690836004811115611c0f57611c0e613a49565b5b02179055504282600901819055508160030154600883600501604051611c359190614561565b90815260200160405180910390205f828254611c519190614322565b925050819055507fee9e2679bc4231f61f398af4926aa82bcc987a2f3bd3036afb225b3cc95572fa82600501600884600501604051611c909190614561565b908152602001604051809103902054600785600501604051611cb29190614561565b908152602001604051809103902054604051611cd0939291906145f8565b60405180910390a15f826002015f9054906101000a900473ffffffffffffffffffffffffffffffffffffffff1673ffffffffffffffffffffffffffffffffffffffff168360030154604051611d2490614661565b5f6040518083038185875af1925050503d805f8114611d5e576040519150601f19603f3d011682016040523d82523d5f602084013e611d63565b606091505b5050905080611daf574783600301546040517fcf479181000000000000000000000000000000000000000000000000000000008152600401611da69291906140c1565b60405180910390fd5b3373ffffffffffffffffffffffffffffffffffffffff16847fb98e60b39b21c12eaf272178a4b9ae91ae7b4c66bd80c976aaf2a0a02d6f99648560030154604051611dfa919061379e565b60405180910390a350505050565b5f611e12876132da565b5f611e2187878787878d613413565b905060048054905091506004604051806101a001604052808481526020013373ffffffffffffffffffffffffffffffffffffffff1681526020018a73ffffffffffffffffffffffffffffffffffffffff16815260200189815260200188888080601f0160208091040260200160405190810160405280939291908181526020018383808284375f81840152601f19601f82011690508083019250505050505050815260200186868080601f0160208091040260200160405190810160405280939291908181526020018383808284375f81840152601f19601f82011690508083019250505050505050815260200183151581526020015f6004811115611f2a57611f29613a49565b5b81526020015f73ffffffffffffffffffffffffffffffffffffffff16815260200160405180602001604052805f81525081526020014281526020014281526020015f815250908060018154018082558091505060019003905f5260205f2090600b02015f909190919091505f820151815f01556020820151816001015f6101000a81548173ffffffffffffffffffffffffffffffffffffffff021916908373ffffffffffffffffffffffffffffffffffffffff1602179055506040820151816002015f6101000a81548173ffffffffffffffffffffffffffffffffffffffff021916908373ffffffffffffffffffffffffffffffffffffffff160217905550606082015181600301556080820151816004019081612048919061480b565b5060a082015181600501908161205e919061480b565b5060c0820151816006015f6101000a81548160ff02191690831515021790555060e08201518160060160016101000a81548160ff021916908360048111156120a9576120a8613a49565b5b02179055506101008201518160060160026101000a81548173ffffffffffffffffffffffffffffffffffffffff021916908373ffffffffffffffffffffffffffffffffffffffff16021790555061012082015181600701908161210c919061480b565b506101408201518160080155610160820151816009015561018082015181600a015550508773ffffffffffffffffffffffffffffffffffffffff163373ffffffffffffffffffffffffffffffffffffffff16837f28d784f7fe69a1e130fc408de40b792f79bd050bbc3f189dd78a41cbeaf7735f8a8a8a8a8a89604051612198969594939291906148da565b60405180910390a4509695505050505050565b600c5481565b5f5f9054906101000a900473ffffffffffffffffffffffffffffffffffffffff1681565b60035481565b5f60046121e783613288565b815481106121f8576121f7614265565b5b905f5260205f2090600b020190503373ffffffffffffffffffffffffffffffffffffffff16816001015f9054906101000a900473ffffffffffffffffffffffffffffffffffffffff1673ffffffffffffffffffffffffffffffffffffffff161461228e576040517f6f3690f600000000000000000000000000000000000000000000000000000000815260040160405180910390fd5b5f60048111156122a1576122a0613a49565b5b8160060160019054906101000a900460ff1660048111156122c5576122c4613a49565b5b1461231a575f8160060160019054906101000a900460ff166040517ff924664d0000000000000000000000000000000000000000000000000000000081526004016123119291906144a8565b60405180910390fd5b60048160060160016101000a81548160ff0219169083600481111561234257612341613a49565b5b02179055504281600901819055503373ffffffffffffffffffffffffffffffffffffffff16827f79334ff99c7f8593acd83817c4d73f0dedc07a3e6574d2bb1015b33d140f7e2560405160405180910390a35050565b6009602052805f5260405f205f915090505481565b60055f3373ffffffffffffffffffffffffffffffffffffffff1673ffffffffffffffffffffffffffffffffffffffff1681526020019081526020015f205f9054906101000a900460ff1661242d576040517ff87c866900000000000000000000000000000000000000000000000000000000815260040160405180910390fd5b5f600461243983613288565b8154811061244a57612449614265565b5b905f5260205f2090600b020190505f600481111561246b5761246a613a49565b5b8160060160019054906101000a900460ff16600481111561248f5761248e613a49565b5b146124e4575f8160060160019054906101000a900460ff166040517ff924664d0000000000000000000000000000000000000000000000000000000081526004016124db9291906144a8565b60405180910390fd5b60065f8381526020019081526020015f205f3373ffffffffffffffffffffffffffffffffffffffff1673ffffffffffffffffffffffffffffffffffffffff1681526020019081526020015f205f9054906101000a900460ff16156125815781336040517ff4d7089900000000000000000000000000000000000000000000000000000000815260040161257892919061492f565b60405180910390fd5b600160065f8481526020019081526020015f205f3373ffffffffffffffffffffffffffffffffffffffff1673ffffffffffffffffffffffffffffffffffffffff1681526020019081526020015f205f6101000a81548160ff021916908315150217905550600181600a015f8282546125f99190614322565b925050819055504281600901819055503373ffffffffffffffffffffffffffffffffffffffff16827ff3003623f7fb706d4039476f30205f1c83d1e98fafaccf0a2df5210c3472444983600a01546003546040516126589291906140c1565b60405180910390a360035481600a0154106127b25760018160060160016101000a81548160ff0219169083600481111561269557612694613a49565b5b0217905550338160060160026101000a81548173ffffffffffffffffffffffffffffffffffffffff021916908373ffffffffffffffffffffffffffffffffffffffff160217905550806006015f9054906101000a900460ff1680156126fb57505f600c54115b1561276d57600c544261270e9190614322565b600d5f8481526020019081526020015f2081905550817fef07468083f9a65f90bc913867cb9c094d414319f187636f677f128ed1983d5d600d5f8581526020019081526020015f2054604051612764919061379e565b60405180910390a25b3373ffffffffffffffffffffffffffffffffffffffff16827fe162d266e792d6e0f285a2273576dbe93b2fbcd9499160acece9637353977cc360405160405180910390a35b5050565b5f5f5f600785856040516127cb929190614116565b9081526020016040518091039020549250600885856040516127ee929190614116565b90815260200160405180910390205491505f8311801561280d57508183115b612817575f612824565b818361282391906142ef565b5b90509250925092565b5f5f9054906101000a900473ffffffffffffffffffffffffffffffffffffffff1673ffffffffffffffffffffffffffffffffffffffff163373ffffffffffffffffffffffffffffffffffffffff16146128b2576040517f5fc483c500000000000000000000000000000000000000000000000000000000815260040160405180910390fd5b5f600c54905081600c819055507fd84347196614d31dad145eabc95ced1a869c98471f432430673a86ad1ef5b9e381836040516128f09291906140c1565b60405180910390a15050565b5f5f9054906101000a900473ffffffffffffffffffffffffffffffffffffffff1673ffffffffffffffffffffffffffffffffffffffff163373ffffffffffffffffffffffffffffffffffffffff1614612981576040517f5fc483c500000000000000000000000000000000000000000000000000000000815260040160405180910390fd5b5f600b54905081600b819055507f93d9930aa7f6580991a5fb61081d5a96310fc72cc5b94dea0b756fd4c78f852a81836040516129bf9291906140c1565b60405180910390a15050565b5f5f9054906101000a900473ffffffffffffffffffffffffffffffffffffffff1673ffffffffffffffffffffffffffffffffffffffff163373ffffffffffffffffffffffffffffffffffffffff1614612a50576040517f5fc483c500000000000000000000000000000000000000000000000000000000815260040160405180910390fd5b5f6002549050816002819055507f4f3d5fbe9be88b3880b488c3471b39c304d9375db993fb41fcfe851eafb57ae78183604051612a8e9291906140c1565b60405180910390a15050565b5f3403612ae1574760016040517fcf479181000000000000000000000000000000000000000000000000000000008152600401612ad892919061498f565b60405180910390fd5b3373ffffffffffffffffffffffffffffffffffffffff167f543ba50a5eec5e6178218e364b1d0f396157b3c8fa278522c2cb7fd99407d47434604051612b27919061379e565b60405180910390a2565b60055f3373ffffffffffffffffffffffffffffffffffffffff1673ffffffffffffffffffffffffffffffffffffffff1681526020019081526020015f205f9054906101000a900460ff16612bb1576040517ff87c866900000000000000000000000000000000000000000000000000000000815260040160405180910390fd5b5f8282905003612bed576040517fdb72b02300000000000000000000000000000000000000000000000000000000815260040160405180910390fd5b5f6004612bf985613288565b81548110612c0a57612c09614265565b5b905f5260205f2090600b020190505f6004811115612c2b57612c2a613a49565b5b8160060160019054906101000a900460ff166004811115612c4f57612c4e613a49565b5b14612ca4575f8160060160019054906101000a900460ff166040517ff924664d000000000000000000000000000000000000000000000000000000008152600401612c9b9291906144a8565b60405180910390fd5b60038160060160016101000a81548160ff02191690836004811115612ccc57612ccb613a49565b5b0217905550338160060160026101000a81548173ffffffffffffffffffffffffffffffffffffffff021916908373ffffffffffffffffffffffffffffffffffffffff1602179055508282826007019182612d279291906149c0565b504281600901819055503373ffffffffffffffffffffffffffffffffffffffff16847f0356f347c980667c00cb19d90f81a18335b569a541e9e8bbf0dab74df055e50e8585604051612d7a929190614a8d565b60405180910390a350505050565b600a602052805f5260405f205f915090505481565b60605f60048054905090505f5f5f90505b82811015612e29575f6004811115612dc957612dc8613a49565b5b60048281548110612ddd57612ddc614265565b5b905f5260205f2090600b020160060160019054906101000a900460ff166004811115612e0c57612e0b613a49565b5b03612e1e5781612e1b90614452565b91505b806001019050612dae565b508067ffffffffffffffff811115612e4457612e4361361b565b5b604051908082528060200260200182016040528015612e7d57816020015b612e6a61353e565b815260200190600190039081612e625790505b5092505f5f5f90505b83811015613281575f6004811115612ea157612ea0613a49565b5b60048281548110612eb557612eb4614265565b5b905f5260205f2090600b020160060160019054906101000a900460ff166004811115612ee457612ee3613a49565b5b036132765760048181548110612efd57612efc614265565b5b905f5260205f2090600b0201604051806101a00160405290815f8201548152602001600182015f9054906101000a900473ffffffffffffffffffffffffffffffffffffffff1673ffffffffffffffffffffffffffffffffffffffff1673ffffffffffffffffffffffffffffffffffffffff168152602001600282015f9054906101000a900473ffffffffffffffffffffffffffffffffffffffff1673ffffffffffffffffffffffffffffffffffffffff1673ffffffffffffffffffffffffffffffffffffffff16815260200160038201548152602001600482018054612fe2906142bf565b80601f016020809104026020016040519081016040528092919081815260200182805461300e906142bf565b80156130595780601f1061303057610100808354040283529160200191613059565b820191905f5260205f20905b81548152906001019060200180831161303c57829003601f168201915b50505050508152602001600582018054613072906142bf565b80601f016020809104026020016040519081016040528092919081815260200182805461309e906142bf565b80156130e95780601f106130c0576101008083540402835291602001916130e9565b820191905f5260205f20905b8154815290600101906020018083116130cc57829003601f168201915b50505050508152602001600682015f9054906101000a900460ff161515151581526020016006820160019054906101000a900460ff16600481111561313157613130613a49565b5b600481111561314357613142613a49565b5b81526020016006820160029054906101000a900473ffffffffffffffffffffffffffffffffffffffff1673ffffffffffffffffffffffffffffffffffffffff1673ffffffffffffffffffffffffffffffffffffffff1681526020016007820180546131ad906142bf565b80601f01602080910402602001604051908101604052809291908181526020018280546131d9906142bf565b80156132245780601f106131fb57610100808354040283529160200191613224565b820191905f5260205f20905b81548152906001019060200180831161320757829003601f168201915b505050505081526020016008820154815260200160098201548152602001600a8201548152505085838061325790614452565b94508151811061326a57613269614265565b5b60200260200101819052505b806001019050612e86565b5050505090565b5f60048054905082106132d257816040517f539e19e40000000000000000000000000000000000000000000000000000000081526004016132c9919061379e565b60405180910390fd5b819050919050565b5f600a5f8373ffffffffffffffffffffffffffffffffffffffff1673ffffffffffffffffffffffffffffffffffffffff1681526020019081526020015f2054905062093a808161332a9190614322565b42106133ba5742600a5f8473ffffffffffffffffffffffffffffffffffffffff1673ffffffffffffffffffffffffffffffffffffffff1681526020019081526020015f2081905550600160095f8473ffffffffffffffffffffffffffffffffffffffff1673ffffffffffffffffffffffffffffffffffffffff1681526020019081526020015f208190555061340f565b600160095f8473ffffffffffffffffffffffffffffffffffffffff1673ffffffffffffffffffffffffffffffffffffffff1681526020019081526020015f205f8282546134079190614322565b925050819055505b5050565b5f5f87036134245760019050613534565b5f86869050036134375760019050613534565b5f61344188610af8565b90505f81118015613453575060025481115b15613462576001915050613534565b5f60078686604051613475929190614116565b90815260200160405180910390205490505f811180156134bf57508089600888886040516134a4929190614116565b9081526020016040518091039020546134bd9190614322565b115b156134cf57600192505050613534565b5f600b5411801561351e5750600b5460095f8673ffffffffffffffffffffffffffffffffffffffff1673ffffffffffffffffffffffffffffffffffffffff1681526020019081526020015f2054115b1561352e57600192505050613534565b5f925050505b9695505050505050565b604051806101a001604052805f81526020015f73ffffffffffffffffffffffffffffffffffffffff1681526020015f73ffffffffffffffffffffffffffffffffffffffff1681526020015f815260200160608152602001606081526020015f151581526020015f60048111156135b7576135b6613a49565b5b81526020015f73ffffffffffffffffffffffffffffffffffffffff168152602001606081526020015f81526020015f81526020015f81525090565b5f604051905090565b5f5ffd5b5f5ffd5b5f5ffd5b5f5ffd5b5f601f19601f8301169050919050565b7f4e487b71000000000000000000000000000000000000000000000000000000005f52604160045260245ffd5b6136518261360b565b810181811067ffffffffffffffff821117156136705761366f61361b565b5b80604052505050565b5f6136826135f2565b905061368e8282613648565b919050565b5f67ffffffffffffffff8211156136ad576136ac61361b565b5b6136b68261360b565b9050602081019050919050565b828183375f83830152505050565b5f6136e36136de84613693565b613679565b9050828152602081018484840111156136ff576136fe613607565b5b61370a8482856136c3565b509392505050565b5f82601f83011261372657613725613603565b5b81356137368482602086016136d1565b91505092915050565b5f60208284031215613754576137536135fb565b5b5f82013567ffffffffffffffff811115613771576137706135ff565b5b61377d84828501613712565b91505092915050565b5f819050919050565b61379881613786565b82525050565b5f6020820190506137b15f83018461378f565b92915050565b6137c081613786565b81146137ca575f5ffd5b50565b5f813590506137db816137b7565b92915050565b5f602082840312156137f6576137f56135fb565b5b5f613803848285016137cd565b91505092915050565b5f73ffffffffffffffffffffffffffffffffffffffff82169050919050565b5f6138358261380c565b9050919050565b6138458161382b565b811461384f575f5ffd5b50565b5f813590506138608161383c565b92915050565b5f5f6040838503121561387c5761387b6135fb565b5b5f613889858286016137cd565b925050602061389a85828601613852565b9150509250929050565b5f8115159050919050565b6138b8816138a4565b82525050565b5f6020820190506138d15f8301846138af565b92915050565b5f5ffd5b5f5ffd5b5f5f83601f8401126138f4576138f3613603565b5b8235905067ffffffffffffffff811115613911576139106138d7565b5b60208301915083600182028301111561392d5761392c6138db565b5b9250929050565b5f5f5f6040848603121561394b5761394a6135fb565b5b5f84013567ffffffffffffffff811115613968576139676135ff565b5b613974868287016138df565b93509350506020613987868287016137cd565b9150509250925092565b5f602082840312156139a6576139a56135fb565b5b5f6139b384828501613852565b91505092915050565b6139c581613786565b82525050565b6139d48161382b565b82525050565b5f81519050919050565b5f82825260208201905092915050565b8281835e5f83830152505050565b5f613a0c826139da565b613a1681856139e4565b9350613a268185602086016139f4565b613a2f8161360b565b840191505092915050565b613a43816138a4565b82525050565b7f4e487b71000000000000000000000000000000000000000000000000000000005f52602160045260245ffd5b60058110613a8757613a86613a49565b5b50565b5f819050613a9782613a76565b919050565b5f613aa682613a8a565b9050919050565b613ab681613a9c565b82525050565b5f6101a083015f830151613ad25f8601826139bc565b506020830151613ae560208601826139cb565b506040830151613af860408601826139cb565b506060830151613b0b60608601826139bc565b5060808301518482036080860152613b238282613a02565b91505060a083015184820360a0860152613b3d8282613a02565b91505060c0830151613b5260c0860182613a3a565b5060e0830151613b6560e0860182613aad565b50610100830151613b7a6101008601826139cb565b50610120830151848203610120860152613b948282613a02565b915050610140830151613bab6101408601826139bc565b50610160830151613bc06101608601826139bc565b50610180830151613bd56101808601826139bc565b508091505092915050565b5f6020820190508181035f830152613bf88184613abc565b905092915050565b5f819050919050565b5f613c23613c1e613c198461380c565b613c00565b61380c565b9050919050565b5f613c3482613c09565b9050919050565b5f613c4582613c2a565b9050919050565b613c5581613c3b565b82525050565b5f602082019050613c6e5f830184613c4c565b92915050565b5f5f60408385031215613c8a57613c896135fb565b5b5f613c97858286016137cd565b9250506020613ca8858286016137cd565b9150509250929050565b5f81519050919050565b5f82825260208201905092915050565b5f819050602082019050919050565b5f6101a083015f830151613cf15f8601826139bc565b506020830151613d0460208601826139cb565b506040830151613d1760408601826139cb565b506060830151613d2a60608601826139bc565b5060808301518482036080860152613d428282613a02565b91505060a083015184820360a0860152613d5c8282613a02565b91505060c0830151613d7160c0860182613a3a565b5060e0830151613d8460e0860182613aad565b50610100830151613d996101008601826139cb565b50610120830151848203610120860152613db38282613a02565b915050610140830151613dca6101408601826139bc565b50610160830151613ddf6101608601826139bc565b50610180830151613df46101808601826139bc565b508091505092915050565b5f613e0a8383613cdb565b905092915050565b5f602082019050919050565b5f613e2882613cb2565b613e328185613cbc565b935083602082028501613e4485613ccc565b805f5b85811015613e7f5784840389528151613e608582613dff565b9450613e6b83613e12565b925060208a01995050600181019050613e47565b50829750879550505050505092915050565b5f6020820190508181035f830152613ea98184613e1e565b905092915050565b613eba816138a4565b8114613ec4575f5ffd5b50565b5f81359050613ed581613eb1565b92915050565b5f5f60408385031215613ef157613ef06135fb565b5b5f613efe85828601613852565b9250506020613f0f85828601613ec7565b9150509250929050565b5f5f5f5f5f5f60808789031215613f3357613f326135fb565b5b5f613f4089828a01613852565b9650506020613f5189828a016137cd565b955050604087013567ffffffffffffffff811115613f7257613f716135ff565b5b613f7e89828a016138df565b9450945050606087013567ffffffffffffffff811115613fa157613fa06135ff565b5b613fad89828a016138df565b92509250509295509295509295565b613fc58161382b565b82525050565b5f602082019050613fde5f830184613fbc565b92915050565b5f5f60208385031215613ffa57613ff96135fb565b5b5f83013567ffffffffffffffff811115614017576140166135ff565b5b614023858286016138df565b92509250509250929050565b5f6060820190506140425f83018661378f565b61404f602083018561378f565b61405c604083018461378f565b949350505050565b5f5f5f6040848603121561407b5761407a6135fb565b5b5f614088868287016137cd565b935050602084013567ffffffffffffffff8111156140a9576140a86135ff565b5b6140b5868287016138df565b92509250509250925092565b5f6040820190506140d45f83018561378f565b6140e1602083018461378f565b9392505050565b5f81905092915050565b5f6140fd83856140e8565b935061410a8385846136c3565b82840190509392505050565b5f6141228284866140f2565b91508190509392505050565b5f82825260208201905092915050565b5f614149838561412e565b93506141568385846136c3565b61415f8361360b565b840190509392505050565b5f6040820190508181035f83015261418381858761413e565b9050614192602083018461378f565b949350505050565b7f4e487b71000000000000000000000000000000000000000000000000000000005f52601160045260245ffd5b5f6141d182613786565b91506141dc83613786565b92508282026141ea81613786565b915082820484148315176142015761420061419a565b5b5092915050565b7f4e487b71000000000000000000000000000000000000000000000000000000005f52601260045260245ffd5b5f61423f82613786565b915061424a83613786565b92508261425a57614259614208565b5b828204905092915050565b7f4e487b71000000000000000000000000000000000000000000000000000000005f52603260045260245ffd5b7f4e487b71000000000000000000000000000000000000000000000000000000005f52602260045260245ffd5b5f60028204905060018216806142d657607f821691505b6020821081036142e9576142e8614292565b5b50919050565b5f6142f982613786565b915061430483613786565b925082820390508181111561431c5761431b61419a565b5b92915050565b5f61432c82613786565b915061433783613786565b925082820190508082111561434f5761434e61419a565b5b92915050565b5f69ffffffffffffffffffff82169050919050565b61437381614355565b811461437d575f5ffd5b50565b5f8151905061438e8161436a565b92915050565b5f819050919050565b6143a681614394565b81146143b0575f5ffd5b50565b5f815190506143c18161439d565b92915050565b5f815190506143d5816137b7565b92915050565b5f5f5f5f5f60a086880312156143f4576143f36135fb565b5b5f61440188828901614380565b9550506020614412888289016143b3565b9450506040614423888289016143c7565b9350506060614434888289016143c7565b925050608061444588828901614380565b9150509295509295909350565b5f61445c82613786565b91507fffffffffffffffffffffffffffffffffffffffffffffffffffffffffffffffff820361448e5761448d61419a565b5b600182019050919050565b6144a281613a9c565b82525050565b5f6040820190506144bb5f830185614499565b6144c86020830184614499565b9392505050565b5f819050815f5260205f209050919050565b5f81546144ed816142bf565b6144f781866140e8565b9450600182165f8114614511576001811461452657614558565b60ff1983168652811515820286019350614558565b61452f856144cf565b5f5b8381101561455057815481890152600182019150602081019050614531565b838801955050505b50505092915050565b5f61456c82846144e1565b915081905092915050565b5f8154614583816142bf565b61458d818661412e565b9450600182165f81146145a757600181146145bd576145ef565b60ff1983168652811515602002860193506145ef565b6145c6856144cf565b5f5b838110156145e7578154818901526001820191506020810190506145c8565b808801955050505b50505092915050565b5f6060820190508181035f8301526146108186614577565b905061461f602083018561378f565b61462c604083018461378f565b949350505050565b5f81905092915050565b50565b5f61464c5f83614634565b91506146578261463e565b5f82019050919050565b5f61466b82614641565b9150819050919050565b5f6020601f8301049050919050565b5f82821b905092915050565b5f600883026146bf7fffffffffffffffffffffffffffffffffffffffffffffffffffffffffffffffff82614684565b6146c98683614684565b95508019841693508086168417925050509392505050565b5f6146fb6146f66146f184613786565b613c00565b613786565b9050919050565b5f819050919050565b614714836146e1565b61472861472082614702565b848454614690565b825550505050565b5f5f905090565b61473f614730565b61474a81848461470b565b505050565b5f5b82811015614770576147655f828401614737565b600181019050614751565b505050565b601f8211156147c357828211156147c25761478f816144cf565b61479883614675565b6147a185614675565b60208610156147ae575f90505b8083016147bd8284038261474f565b505050505b5b505050565b5f82821c905092915050565b5f6147e35f19846008026147c8565b1980831691505092915050565b5f6147fb83836147d4565b9150826002028217905092915050565b614814826139da565b67ffffffffffffffff81111561482d5761482c61361b565b5b61483782546142bf565b614842828285614775565b5f60209050601f831160018114614873575f8415614861578287015190505b61486b85826147f0565b8655506148d2565b601f198416614881866144cf565b5f5b828110156148a857848901518255600182019150602085019450602081019050614883565b868310156148c557848901516148c1601f8916826147d4565b8355505b6001600288020188555050505b505050505050565b5f6080820190506148ed5f83018961378f565b818103602083015261490081878961413e565b9050818103604083015261491581858761413e565b905061492460608301846138af565b979650505050505050565b5f6040820190506149425f83018561378f565b61494f6020830184613fbc565b9392505050565b5f819050919050565b5f61497961497461496f84614956565b613c00565b613786565b9050919050565b6149898161495f565b82525050565b5f6040820190506149a25f83018561378f565b6149af6020830184614980565b9392505050565b5f82905092915050565b6149ca83836149b6565b67ffffffffffffffff8111156149e3576149e261361b565b5b6149ed82546142bf565b6149f8828285614775565b5f601f831160018114614a25575f8415614a13578287013590505b614a1d85826147f0565b865550614a84565b601f198416614a33866144cf565b5f5b82811015614a5a57848901358255600182019150602085019450602081019050614a35565b86831015614a775784890135614a73601f8916826147d4565b8355505b6001600288020188555050505b50505050505050565b5f6020820190508181035f830152614aa681848661413e565b9050939250505056fea26469706673582212208c38cc4e94709ed91926f70b9412bdfc391a4ce88b18be949bce72107db04ec564736f6c63430008210033","linkReferences":{}},"methodIdentifiers":{"approveExpense(uint256)":"b579e7f1","auditors(address)":"47f9aa9f","cancelExpense(uint256)":"a6fa8a3a","categoryBudget(string)":"4a112bd7","categorySpent(string)":"06d2c5e9","depositFunds()":"e2c41dbc","executeAfter(uint256)":"22ef441e","executeExpense(uint256)":"800cbe97","getAmountInUSD(uint256)":"57e10aac","getCategoryInfo(string)":"b797476a","getExpense(uint256)":"735e5db6","getExpenses(uint256,uint256)":"744c57f0","getFlaggedExpenses()":"77a6ccf2","getLatestETHPrice()":"777e0d86","getPendingExpenses()":"facab3d8","hasApproved(uint256,address)":"2358d5a8","largeAmountThresholdUSD()":"56d06f6b","owner()":"8da5cb5b","priceFeed()":"741bef1a","receiverWindowCount(address)":"ad3f258c","receiverWindowStart(address)":"f66957d0","rejectExpense(uint256,string)":"f624afc6","requiredApprovals()":"99c1aadc","setAuditor(address,bool)":"7795024f","setCategoryBudget(string,uint256)":"3dd211c0","setLargeAmountThresholdUSD(uint256)":"cb407968","setRequiredApprovals(uint256)":"222a242e","setTimeLockDelay(uint256)":"c49a91fe","setVelocityThreshold(uint256)":"c85b6df2","submitExpense(address,uint256,string,string)":"82dad462","timeLockDelay()":"8bbc6446","totalExpenses()":"7bd35af8","velocityThreshold()":"271f4139"},"id":16}