{"abi":[{"type":"function","name":"LARGE_AMOUNT_THRESHOLD","inputs":[],"outputs":[{"name":"","type":"uint256","internalType":"uint256"}],"stateMutability":"view"},{"type":"function","name":"addTransaction","inputs":[{"name":"receiver","type":"address","internalType":"address"},{"name":"amount","type":"uint256","internalType":"uint256"},{"name":"purpose","type":"string","internalType":"string"}],"outputs":[{"name":"id","type":"uint256","internalType":"uint256"}],"stateMutability":"nonpayable"},{"type":"function","name":"getAllTransactions","inputs":[],"outputs":[{"name":"","type":"tuple[]","internalType":"struct FundShield.Transaction[]","components":[{"name":"id","type":"uint256","internalType":"uint256"},{"name":"sender","type":"address","internalType":"address"},{"name":"receiver","type":"address","internalType":"address"},{"name":"amount","type":"uint256","internalType":"uint256"},{"name":"purpose","type":"string","internalType":"string"},{"name":"flagged","type":"bool","internalType":"bool"},{"name":"timestamp","type":"uint256","internalType":"uint256"}]}],"stateMutability":"view"},{"type":"function","name":"getFlaggedTransactions","inputs":[],"outputs":[{"name":"flagged","type":"tuple[]","internalType":"struct FundShield.Transaction[]","components":[{"name":"id","type":"uint256","internalType":"uint256"},{"name":"sender","type":"address","internalType":"address"},{"name":"receiver","type":"address","internalType":"address"},{"name":"amount","type":"uint256","internalType":"uint256"},{"name":"purpose","type":"string","internalType":"string"},{"name":"flagged","type":"bool","internalType":"bool"},{"name":"timestamp","type":"uint256","internalType":"uint256"}]}],"stateMutability":"view"},{"type":"function","name":"getTransaction","inputs":[{"name":"id","type":"uint256","internalType":"uint256"}],"outputs":[{"name":"","type":"tuple","internalType":"struct FundShield.Transaction","components":[{"name":"id","type":"uint256","internalType":"uint256"},{"name":"sender","type":"address","internalType":"address"},{"name":"receiver","type":"address","internalType":"address"},{"name":"amount","type":"uint256","internalType":"uint256"},{"name":"purpose","type":"string","internalType":"string"},{"name":"flagged","type":"bool","internalType":"bool"},{"name":"timestamp","type":"uint256","internalType":"uint256"}]}],"stateMutability":"view"},{"type":"function","name":"totalTransactions","inputs":[],"outputs":[{"name":"","type":"uint256","internalType":"uint256"}],"stateMutability":"view"},{"type":"event","name":"TransactionLogged","inputs":[{"name":"id","type":"uint256","indexed":true,"internalType":"uint256"},{"name":"sender","type":"address","indexed":true,"internalType":"address"},{"name":"receiver","type":"address","indexed":true,"internalType":"address"},{"name":"amount","type":"uint256","indexed":false,"internalType":"uint256"},{"name":"purpose","type":"string","indexed":false,"internalType":"string"},{"name":"flagged","type":"bool","indexed":false,"internalType":"bool"}],"anonymous":false}],"bytecode":{"object":"0x6080604052348015600e575f5ffd5b506113838061001c5f395ff3fe608060405234801561000f575f5ffd5b5060043610610060575f3560e01c8063090c85a41461006457806327506f531461009457806333ea3dc8146100b257806347161b41146100e2578063b9a6003814610100578063db4e1c6b1461011e575b5f5ffd5b61007e60048036038101906100799190610b72565b61013c565b60405161008b9190610bf2565b60405180910390f35b61009c610371565b6040516100a99190610e07565b60405180910390f35b6100cc60048036038101906100c79190610e27565b61053d565b6040516100d99190610eeb565b60405180910390f35b6100ea6106e7565b6040516100f79190610bf2565b60405180910390f35b6101086106f4565b6040516101159190610bf2565b60405180910390f35b6101266106ff565b6040516101339190610e07565b60405180910390f35b5f5f6101498585856109ce565b90505f8054905091505f6040518060e001604052808481526020013373ffffffffffffffffffffffffffffffffffffffff1681526020018873ffffffffffffffffffffffffffffffffffffffff16815260200187815260200186868080601f0160208091040260200160405190810160405280939291908181526020018383808284375f81840152601f19601f820116905080830192505050505050508152602001831515815260200142815250908060018154018082558091505060019003905f5260205f2090600702015f909190919091505f820151815f01556020820151816001015f6101000a81548173ffffffffffffffffffffffffffffffffffffffff021916908373ffffffffffffffffffffffffffffffffffffffff1602179055506040820151816002015f6101000a81548173ffffffffffffffffffffffffffffffffffffffff021916908373ffffffffffffffffffffffffffffffffffffffff1602179055506060820151816003015560808201518160040190816102d09190611146565b5060a0820151816005015f6101000a81548160ff02191690831515021790555060c0820151816006015550508573ffffffffffffffffffffffffffffffffffffffff163373ffffffffffffffffffffffffffffffffffffffff16837f49daefb27dc1ce9f772f412fde6a073de54597178ba2910c38e53e8187630b2688888887604051610360949392919061126e565b60405180910390a450949350505050565b60605f805480602002602001604051908101604052809291908181526020015f905b82821015610534578382905f5260205f2090600702016040518060e00160405290815f8201548152602001600182015f9054906101000a900473ffffffffffffffffffffffffffffffffffffffff1673ffffffffffffffffffffffffffffffffffffffff1673ffffffffffffffffffffffffffffffffffffffff168152602001600282015f9054906101000a900473ffffffffffffffffffffffffffffffffffffffff1673ffffffffffffffffffffffffffffffffffffffff1673ffffffffffffffffffffffffffffffffffffffff1681526020016003820154815260200160048201805461048190610f65565b80601f01602080910402602001604051908101604052809291908181526020018280546104ad90610f65565b80156104f85780601f106104cf576101008083540402835291602001916104f8565b820191905f5260205f20905b8154815290600101906020018083116104db57829003601f168201915b50505050508152602001600582015f9054906101000a900460ff1615151515815260200160068201548152505081526020019060010190610393565b50505050905090565b610545610a17565b5f8281548110610558576105576112ac565b5b905f5260205f2090600702016040518060e00160405290815f8201548152602001600182015f9054906101000a900473ffffffffffffffffffffffffffffffffffffffff1673ffffffffffffffffffffffffffffffffffffffff1673ffffffffffffffffffffffffffffffffffffffff168152602001600282015f9054906101000a900473ffffffffffffffffffffffffffffffffffffffff1673ffffffffffffffffffffffffffffffffffffffff1673ffffffffffffffffffffffffffffffffffffffff1681526020016003820154815260200160048201805461063c90610f65565b80601f016020809104026020016040519081016040528092919081815260200182805461066890610f65565b80156106b35780601f1061068a576101008083540402835291602001916106b3565b820191905f5260205f20905b81548152906001019060200180831161069657829003601f168201915b50505050508152602001600582015f9054906101000a900460ff161515151581526020016006820154815250509050919050565b683635c9adc5dea0000081565b5f5f80549050905090565b60605f5f8054905090505f5f5b82811015610760575f8181548110610727576107266112ac565b5b905f5260205f2090600702016005015f9054906101000a900460ff1615610755578161075290611306565b91505b80600101905061070c565b508067ffffffffffffffff81111561077b5761077a610f0b565b5b6040519080825280602002602001820160405280156107b457816020015b6107a1610a17565b8152602001906001900390816107995790505b5092505f5f5b838110156109c7575f81815481106107d5576107d46112ac565b5b905f5260205f2090600702016005015f9054906101000a900460ff16156109bc575f8181548110610809576108086112ac565b5b905f5260205f2090600702016040518060e00160405290815f8201548152602001600182015f9054906101000a900473ffffffffffffffffffffffffffffffffffffffff1673ffffffffffffffffffffffffffffffffffffffff1673ffffffffffffffffffffffffffffffffffffffff168152602001600282015f9054906101000a900473ffffffffffffffffffffffffffffffffffffffff1673ffffffffffffffffffffffffffffffffffffffff1673ffffffffffffffffffffffffffffffffffffffff168152602001600382015481526020016004820180546108ed90610f65565b80601f016020809104026020016040519081016040528092919081815260200182805461091990610f65565b80156109645780601f1061093b57610100808354040283529160200191610964565b820191905f5260205f20905b81548152906001019060200180831161094757829003601f168201915b50505050508152602001600582015f9054906101000a900460ff1615151515815260200160068201548152505085838061099d90611306565b9450815181106109b0576109af6112ac565b5b60200260200101819052505b8060010190506107ba565b5050505090565b5f5f84036109df5760019050610a10565b5f83839050036109f25760019050610a10565b683635c9adc5dea00000841115610a0c5760019050610a10565b5f90505b9392505050565b6040518060e001604052805f81526020015f73ffffffffffffffffffffffffffffffffffffffff1681526020015f73ffffffffffffffffffffffffffffffffffffffff1681526020015f8152602001606081526020015f151581526020015f81525090565b5f5ffd5b5f5ffd5b5f73ffffffffffffffffffffffffffffffffffffffff82169050919050565b5f610aad82610a84565b9050919050565b610abd81610aa3565b8114610ac7575f5ffd5b50565b5f81359050610ad881610ab4565b92915050565b5f819050919050565b610af081610ade565b8114610afa575f5ffd5b50565b5f81359050610b0b81610ae7565b92915050565b5f5ffd5b5f5ffd5b5f5ffd5b5f5f83601f840112610b3257610b31610b11565b5b8235905067ffffffffffffffff811115610b4f57610b4e610b15565b5b602083019150836001820283011115610b6b57610b6a610b19565b5b9250929050565b5f5f5f5f60608587031215610b8a57610b89610a7c565b5b5f610b9787828801610aca565b9450506020610ba887828801610afd565b935050604085013567ffffffffffffffff811115610bc957610bc8610a80565b5b610bd587828801610b1d565b925092505092959194509250565b610bec81610ade565b82525050565b5f602082019050610c055f830184610be3565b92915050565b5f81519050919050565b5f82825260208201905092915050565b5f819050602082019050919050565b610c3d81610ade565b82525050565b610c4c81610aa3565b82525050565b5f81519050919050565b5f82825260208201905092915050565b8281835e5f83830152505050565b5f601f19601f8301169050919050565b5f610c9482610c52565b610c9e8185610c5c565b9350610cae818560208601610c6c565b610cb781610c7a565b840191505092915050565b5f8115159050919050565b610cd681610cc2565b82525050565b5f60e083015f830151610cf15f860182610c34565b506020830151610d046020860182610c43565b506040830151610d176040860182610c43565b506060830151610d2a6060860182610c34565b5060808301518482036080860152610d428282610c8a565b91505060a0830151610d5760a0860182610ccd565b5060c0830151610d6a60c0860182610c34565b508091505092915050565b5f610d808383610cdc565b905092915050565b5f602082019050919050565b5f610d9e82610c0b565b610da88185610c15565b935083602082028501610dba85610c25565b805f5b85811015610df55784840389528151610dd68582610d75565b9450610de183610d88565b925060208a01995050600181019050610dbd565b50829750879550505050505092915050565b5f6020820190508181035f830152610e1f8184610d94565b905092915050565b5f60208284031215610e3c57610e3b610a7c565b5b5f610e4984828501610afd565b91505092915050565b5f60e083015f830151610e675f860182610c34565b506020830151610e7a6020860182610c43565b506040830151610e8d6040860182610c43565b506060830151610ea06060860182610c34565b5060808301518482036080860152610eb88282610c8a565b91505060a0830151610ecd60a0860182610ccd565b5060c0830151610ee060c0860182610c34565b508091505092915050565b5f6020820190508181035f830152610f038184610e52565b905092915050565b7f4e487b71000000000000000000000000000000000000000000000000000000005f52604160045260245ffd5b7f4e487b71000000000000000000000000000000000000000000000000000000005f52602260045260245ffd5b5f6002820490506001821680610f7c57607f821691505b602082108103610f8f57610f8e610f38565b5b50919050565b5f819050815f5260205f209050919050565b5f6020601f8301049050919050565b5f82821b905092915050565b5f60088302610ff17fffffffffffffffffffffffffffffffffffffffffffffffffffffffffffffffff82610fb6565b610ffb8683610fb6565b95508019841693508086168417925050509392505050565b5f819050919050565b5f61103661103161102c84610ade565b611013565b610ade565b9050919050565b5f819050919050565b61104f8361101c565b61106361105b8261103d565b848454610fc2565b825550505050565b5f5f905090565b61107a61106b565b611085818484611046565b505050565b5f5b828110156110ab576110a05f828401611072565b60018101905061108c565b505050565b601f8211156110fe57828211156110fd576110ca81610f95565b6110d383610fa7565b6110dc85610fa7565b60208610156110e9575f90505b8083016110f88284038261108a565b505050505b5b505050565b5f82821c905092915050565b5f61111e5f1984600802611103565b1980831691505092915050565b5f611136838361110f565b9150826002028217905092915050565b61114f82610c52565b67ffffffffffffffff81111561116857611167610f0b565b5b6111728254610f65565b61117d8282856110b0565b5f60209050601f8311600181146111ae575f841561119c578287015190505b6111a6858261112b565b86555061120d565b601f1984166111bc86610f95565b5f5b828110156111e3578489015182556001820191506020850194506020810190506111be565b8683101561120057848901516111fc601f89168261110f565b8355505b6001600288020188555050505b505050505050565b5f82825260208201905092915050565b828183375f83830152505050565b5f61123e8385611215565b935061124b838584611225565b61125483610c7a565b840190509392505050565b61126881610cc2565b82525050565b5f6060820190506112815f830187610be3565b8181036020830152611294818587611233565b90506112a3604083018461125f565b95945050505050565b7f4e487b71000000000000000000000000000000000000000000000000000000005f52603260045260245ffd5b7f4e487b71000000000000000000000000000000000000000000000000000000005f52601160045260245ffd5b5f61131082610ade565b91507fffffffffffffffffffffffffffffffffffffffffffffffffffffffffffffffff8203611342576113416112d9565b5b60018201905091905056fea2646970667358221220dd922e9d2ba1515e12ee62e9d746460384a60e23b89b342e55724d1f0a959dfd64736f6c63430008210033","linkReferences":{}},"methodIdentifiers":{"LARGE_AMOUNT_THRESHOLD()":"47161b41","addTransaction(address,uint256,string)":"090c85a4","getAllTransactions()":"27506f53","getFlaggedTransactions()":"db4e1c6b","getTransaction(uint256)":"33ea3dc8","totalTransactions()":"b9a60038"},"id":21}