{"abi":[{"type":"constructor","inputs":[],"stateMutability":"nonpayable"},{"type":"function","name":"approveExpense","inputs":[{"name":"id","type":"uint256","internalType":"uint256"}],"outputs":[],"stateMutability":"nonpayable"},{"type":"function","name":"auditors","inputs":[{"name":"","type":"address","internalType":"address"}],"outputs":[{"name":"","type":"bool","internalType":"bool"}],"stateMutability":"view"},{"type":"function","name":"cancelExpense","inputs":[{"name":"id","type":"uint256","internalType":"uint256"}],"outputs":[],"stateMutability":"nonpayable"},{"type":"function","name":"depositFunds","inputs":[],"outputs":[],"stateMutability":"payable"},{"type":"function","name":"executeExpense","inputs":[{"name":"id","type":"uint256","internalType":"uint256"}],"outputs":[],"stateMutability":"nonpayable"},{"type":"function","name":"getExpense","inputs":[{"name":"id","type":"uint256","internalType":"uint256"}],"outputs":[{"name":"","type":"tuple","internalType":"struct FundShield.Expense","components":[{"name":"id","type":"uint256","internalType":"uint256"},{"name":"requester","type":"address","internalType":"address"},{"name":"receiver","type":"address","internalType":"address"},{"name":"amount","type":"uint256","internalType":"uint256"},{"name":"purpose","type":"string","internalType":"string"},{"name":"category","type":"string","internalType":"string"},{"name":"flagged","type":"bool","internalType":"bool"},{"name":"status","type":"uint8","internalType":"enum FundShield.Status"},{"name":"approver","type":"address","internalType":"address"},{"name":"rejectReason","type":"string","internalType":"string"},{"name":"createdAt","type":"uint256","internalType":"uint256"},{"name":"updatedAt","type":"uint256","internalType":"uint256"}]}],"stateMutability":"view"},{"type":"function","name":"getExpenses","inputs":[{"name":"start","type":"uint256","internalType":"uint256"},{"name":"count","type":"uint256","internalType":"uint256"}],"outputs":[{"name":"expenses","type":"tuple[]","internalType":"struct FundShield.Expense[]","components":[{"name":"id","type":"uint256","internalType":"uint256"},{"name":"requester","type":"address","internalType":"address"},{"name":"receiver","type":"address","internalType":"address"},{"name":"amount","type":"uint256","internalType":"uint256"},{"name":"purpose","type":"string","internalType":"string"},{"name":"category","type":"string","internalType":"string"},{"name":"flagged","type":"bool","internalType":"bool"},{"name":"status","type":"uint8","internalType":"enum FundShield.Status"},{"name":"approver","type":"address","internalType":"address"},{"name":"rejectReason","type":"string","internalType":"string"},{"name":"createdAt","type":"uint256","internalType":"uint256"},{"name":"updatedAt","type":"uint256","internalType":"uint256"}]}],"stateMutability":"view"},{"type":"function","name":"getFlaggedExpenses","inputs":[],"outputs":[{"name":"flagged","type":"tuple[]","internalType":"struct FundShield.Expense[]","components":[{"name":"id","type":"uint256","internalType":"uint256"},{"name":"requester","type":"address","internalType":"address"},{"name":"receiver","type":"address","internalType":"address"},{"name":"amount","type":"uint256","internalType":"uint256"},{"name":"purpose","type":"string","internalType":"string"},{"name":"category","type":"string","internalType":"string"},{"name":"flagged","type":"bool","internalType":"bool"},{"name":"status","type":"uint8","internalType":"enum FundShield.Status"},{"name":"approver","type":"address","internalType":"address"},{"name":"rejectReason","type":"string","internalType":"string"},{"name":"createdAt","type":"uint256","internalType":"uint256"},{"name":"updatedAt","type":"uint256","internalType":"uint256"}]}],"stateMutability":"view"},{"type":"function","name":"getPendingExpenses","inputs":[],"outputs":[{"name":"pending","type":"tuple[]","internalType":"struct FundShield.Expense[]","components":[{"name":"id","type":"uint256","internalType":"uint256"},{"name":"requester","type":"address","internalType":"address"},{"name":"receiver","type":"address","internalType":"address"},{"name":"amount","type":"uint256","internalType":"uint256"},{"name":"purpose","type":"string","internalType":"string"},{"name":"category","type":"string","internalType":"string"},{"name":"flagged","type":"bool","internalType":"bool"},{"name":"status","type":"uint8","internalType":"enum FundShield.Status"},{"name":"approver","type":"address","internalType":"address"},{"name":"rejectReason","type":"string","internalType":"string"},{"name":"createdAt","type":"uint256","internalType":"uint256"},{"name":"updatedAt","type":"uint256","internalType":"uint256"}]}],"stateMutability":"view"},{"type":"function","name":"largeAmountThreshold","inputs":[],"outputs":[{"name":"","type":"uint256","internalType":"uint256"}],"stateMutability":"view"},{"type":"function","name":"owner","inputs":[],"outputs":[{"name":"","type":"address","internalType":"address"}],"stateMutability":"view"},{"type":"function","name":"rejectExpense","inputs":[{"name":"id","type":"uint256","internalType":"uint256"},{"name":"reason","type":"string","internalType":"string"}],"outputs":[],"stateMutability":"nonpayable"},{"type":"function","name":"setAuditor","inputs":[{"name":"auditor","type":"address","internalType":"address"},{"name":"authorized","type":"bool","internalType":"bool"}],"outputs":[],"stateMutability":"nonpayable"},{"type":"function","name":"setLargeAmountThreshold","inputs":[{"name":"newThreshold","type":"uint256","internalType":"uint256"}],"outputs":[],"stateMutability":"nonpayable"},{"type":"function","name":"submitExpense","inputs":[{"name":"receiver","type":"address","internalType":"address"},{"name":"amount","type":"uint256","internalType":"uint256"},{"name":"purpose","type":"string","internalType":"string"},{"name":"category","type":"string","internalType":"string"}],"outputs":[{"name":"id","type":"uint256","internalType":"uint256"}],"stateMutability":"nonpayable"},{"type":"function","name":"totalExpenses","inputs":[],"outputs":[{"name":"","type":"uint256","internalType":"uint256"}],"stateMutability":"view"},{"type":"event","name":"AuditorUpdated","inputs":[{"name":"auditor","type":"address","indexed":true,"internalType":"address"},{"name":"authorized","type":"bool","indexed":false,"internalType":"bool"}],"anonymous":false},{"type":"event","name":"ExpenseApproved","inputs":[{"name":"id","type":"uint256","indexed":true,"internalType":"uint256"},{"name":"approver","type":"address","indexed":true,"internalType":"address"}],"anonymous":false},{"type":"event","name":"ExpenseCancelled","inputs":[{"name":"id","type":"uint256","indexed":true,"internalType":"uint256"},{"name":"requester","type":"address","indexed":true,"internalType":"address"}],"anonymous":false},{"type":"event","name":"ExpenseExecuted","inputs":[{"name":"id","type":"uint256","indexed":true,"internalType":"uint256"},{"name":"executor","type":"address","indexed":true,"internalType":"address"},{"name":"amount","type":"uint256","indexed":false,"internalType":"uint256"}],"anonymous":false},{"type":"event","name":"ExpenseRejected","inputs":[{"name":"id","type":"uint256","indexed":true,"internalType":"uint256"},{"name":"approver","type":"address","indexed":true,"internalType":"address"},{"name":"reason","type":"string","indexed":false,"internalType":"string"}],"anonymous":false},{"type":"event","name":"ExpenseSubmitted","inputs":[{"name":"id","type":"uint256","indexed":true,"internalType":"uint256"},{"name":"requester","type":"address","indexed":true,"internalType":"address"},{"name":"receiver","type":"address","indexed":true,"internalType":"address"},{"name":"amount","type":"uint256","indexed":false,"internalType":"uint256"},{"name":"purpose","type":"string","indexed":false,"internalType":"string"},{"name":"category","type":"string","indexed":false,"internalType":"string"},{"name":"flagged","type":"bool","indexed":false,"internalType":"bool"}],"anonymous":false},{"type":"event","name":"FundsDeposited","inputs":[{"name":"sender","type":"address","indexed":true,"internalType":"address"},{"name":"amount","type":"uint256","indexed":false,"internalType":"uint256"}],"anonymous":false},{"type":"event","name":"LargeAmountThresholdUpdated","inputs":[{"name":"oldThreshold","type":"uint256","indexed":false,"internalType":"uint256"},{"name":"newThreshold","type":"uint256","indexed":false,"internalType":"uint256"}],"anonymous":false},{"type":"error","name":"AlreadyFinalized","inputs":[{"name":"actual","type":"uint8","internalType":"enum FundShield.Status"}]},{"type":"error","name":"EmptyReason","inputs":[]},{"type":"error","name":"InsufficientBalance","inputs":[{"name":"balance","type":"uint256","internalType":"uint256"},{"name":"required","type":"uint256","internalType":"uint256"}]},{"type":"error","name":"InvalidExpenseId","inputs":[{"name":"id","type":"uint256","internalType":"uint256"}]},{"type":"error","name":"InvalidStatus","inputs":[{"name":"expected","type":"uint8","internalType":"enum FundShield.Status"},{"name":"actual","type":"uint8","internalType":"enum FundShield.Status"}]},{"type":"error","name":"OnlyAuditor","inputs":[]},{"type":"error","name":"OnlyOwner","inputs":[]},{"type":"error","name":"OnlyRequester","inputs":[]}],"bytecode":{"object":"0x6080604052348015600e575f5ffd5b50335f5f6101000a81548173ffffffffffffffffffffffffffffffffffffffff021916908373ffffffffffffffffffffffffffffffffffffffff160217905550600160035f3373ffffffffffffffffffffffffffffffffffffffff1673ffffffffffffffffffffffffffffffffffffffff1681526020019081526020015f205f6101000a81548160ff021916908315150217905550683635c9adc5dea00000600181905550613445806100c05f395ff3fe6080604052600436106100f2575f3560e01c80638da5cb5b11610089578063cf76fa0f11610058578063cf76fa0f1461032c578063e2c41dbc14610356578063f624afc614610360578063facab3d814610388576100f2565b80638da5cb5b1461028a578063a6fa8a3a146102b4578063a71f1653146102dc578063b579e7f114610304576100f2565b806377a6ccf2116100c557806377a6ccf2146101d25780637bd35af8146101fc578063800cbe971461022657806382dad4621461024e576100f2565b806347f9aa9f146100f6578063735e5db614610132578063744c57f01461016e5780637795024f146101aa575b5f5ffd5b348015610101575f5ffd5b5061011c6004803603810190610117919061262c565b6103b2565b6040516101299190612671565b60405180910390f35b34801561013d575f5ffd5b50610158600480360381019061015391906126bd565b6103cf565b6040516101659190612907565b60405180910390f35b348015610179575f5ffd5b50610194600480360381019061018f9190612927565b61073e565b6040516101a19190612b2f565b60405180910390f35b3480156101b5575f5ffd5b506101d060048036038101906101cb9190612b79565b610bc7565b005b3480156101dd575f5ffd5b506101e6610cf2565b6040516101f39190612b2f565b60405180910390f35b348015610207575f5ffd5b50610210611187565b60405161021d9190612bc6565b60405180910390f35b348015610231575f5ffd5b5061024c600480360381019061024791906126bd565b611193565b005b348015610259575f5ffd5b50610274600480360381019061026f9190612c40565b611485565b6040516102819190612bc6565b60405180910390f35b348015610295575f5ffd5b5061029e61180b565b6040516102ab9190612cf2565b60405180910390f35b3480156102bf575f5ffd5b506102da60048036038101906102d591906126bd565b61182f565b005b3480156102e7575f5ffd5b5061030260048036038101906102fd91906126bd565b6119ec565b005b34801561030f575f5ffd5b5061032a600480360381019061032591906126bd565b611abb565b005b348015610337575f5ffd5b50610340611cb3565b60405161034d9190612bc6565b60405180910390f35b61035e611cb9565b005b34801561036b575f5ffd5b5061038660048036038101906103819190612d0b565b611d50565b005b348015610393575f5ffd5b5061039c611fa7565b6040516103a99190612b2f565b60405180910390f35b6003602052805f5260405f205f915054906101000a900460ff1681565b6103d761251c565b60026103e283612488565b815481106103f3576103f2612d68565b5b905f5260205f2090600a0201604051806101800160405290815f8201548152602001600182015f9054906101000a900473ffffffffffffffffffffffffffffffffffffffff1673ffffffffffffffffffffffffffffffffffffffff1673ffffffffffffffffffffffffffffffffffffffff168152602001600282015f9054906101000a900473ffffffffffffffffffffffffffffffffffffffff1673ffffffffffffffffffffffffffffffffffffffff1673ffffffffffffffffffffffffffffffffffffffff168152602001600382015481526020016004820180546104d890612dc2565b80601f016020809104026020016040519081016040528092919081815260200182805461050490612dc2565b801561054f5780601f106105265761010080835404028352916020019161054f565b820191905f5260205f20905b81548152906001019060200180831161053257829003601f168201915b5050505050815260200160058201805461056890612dc2565b80601f016020809104026020016040519081016040528092919081815260200182805461059490612dc2565b80156105df5780601f106105b6576101008083540402835291602001916105df565b820191905f5260205f20905b8154815290600101906020018083116105c257829003601f168201915b50505050508152602001600682015f9054906101000a900460ff161515151581526020016006820160019054906101000a900460ff16600481111561062757610626612785565b5b600481111561063957610638612785565b5b81526020016006820160029054906101000a900473ffffffffffffffffffffffffffffffffffffffff1673ffffffffffffffffffffffffffffffffffffffff1673ffffffffffffffffffffffffffffffffffffffff1681526020016007820180546106a390612dc2565b80601f01602080910402602001604051908101604052809291908181526020018280546106cf90612dc2565b801561071a5780601f106106f15761010080835404028352916020019161071a565b820191905f5260205f20905b8154815290600101906020018083116106fd57829003601f168201915b50505050508152602001600882015481526020016009820154815250509050919050565b60605f60028054905090508084106107ac575f67ffffffffffffffff81111561076a57610769612df2565b5b6040519080825280602002602001820160405280156107a357816020015b61079061251c565b8152602001906001900390816107885790505b50915050610bc1565b5f84826107b99190612e4c565b90505f8185106107c957816107cb565b845b90508067ffffffffffffffff8111156107e7576107e6612df2565b5b60405190808252806020026020018201604052801561082057816020015b61080d61251c565b8152602001906001900390816108055790505b5093505f5f90505b81811015610bbc576002818861083e9190612e7f565b8154811061084f5761084e612d68565b5b905f5260205f2090600a0201604051806101800160405290815f8201548152602001600182015f9054906101000a900473ffffffffffffffffffffffffffffffffffffffff1673ffffffffffffffffffffffffffffffffffffffff1673ffffffffffffffffffffffffffffffffffffffff168152602001600282015f9054906101000a900473ffffffffffffffffffffffffffffffffffffffff1673ffffffffffffffffffffffffffffffffffffffff1673ffffffffffffffffffffffffffffffffffffffff1681526020016003820154815260200160048201805461093490612dc2565b80601f016020809104026020016040519081016040528092919081815260200182805461096090612dc2565b80156109ab5780601f10610982576101008083540402835291602001916109ab565b820191905f5260205f20905b81548152906001019060200180831161098e57829003601f168201915b505050505081526020016005820180546109c490612dc2565b80601f01602080910402602001604051908101604052809291908181526020018280546109f090612dc2565b8015610a3b5780601f10610a1257610100808354040283529160200191610a3b565b820191905f5260205f20905b815481529060010190602001808311610a1e57829003601f168201915b50505050508152602001600682015f9054906101000a900460ff161515151581526020016006820160019054906101000a900460ff166004811115610a8357610a82612785565b5b6004811115610a9557610a94612785565b5b81526020016006820160029054906101000a900473ffffffffffffffffffffffffffffffffffffffff1673ffffffffffffffffffffffffffffffffffffffff1673ffffffffffffffffffffffffffffffffffffffff168152602001600782018054610aff90612dc2565b80601f0160208091040260200160405190810160405280929190818152602001828054610b2b90612dc2565b8015610b765780601f10610b4d57610100808354040283529160200191610b76565b820191905f5260205f20905b815481529060010190602001808311610b5957829003601f168201915b5050505050815260200160088201548152602001600982015481525050858281518110610ba657610ba5612d68565b5b6020026020010181905250806001019050610828565b505050505b92915050565b5f5f9054906101000a900473ffffffffffffffffffffffffffffffffffffffff1673ffffffffffffffffffffffffffffffffffffffff163373ffffffffffffffffffffffffffffffffffffffff1614610c4c576040517f5fc483c500000000000000000000000000000000000000000000000000000000815260040160405180910390fd5b8060035f8473ffffffffffffffffffffffffffffffffffffffff1673ffffffffffffffffffffffffffffffffffffffff1681526020019081526020015f205f6101000a81548160ff0219169083151502179055508173ffffffffffffffffffffffffffffffffffffffff167f586ddd46d982976bec1e4d9a834af85e45533be873df97fdba8c75e9e2f6567282604051610ce69190612671565b60405180910390a25050565b60605f60028054905090505f5f5f90505b82811015610d585760028181548110610d1f57610d1e612d68565b5b905f5260205f2090600a02016006015f9054906101000a900460ff1615610d4d5781610d4a90612eb2565b91505b806001019050610d03565b508067ffffffffffffffff811115610d7357610d72612df2565b5b604051908082528060200260200182016040528015610dac57816020015b610d9961251c565b815260200190600190039081610d915790505b5092505f5f5f90505b838110156111805760028181548110610dd157610dd0612d68565b5b905f5260205f2090600a02016006015f9054906101000a900460ff16156111755760028181548110610e0657610e05612d68565b5b905f5260205f2090600a0201604051806101800160405290815f8201548152602001600182015f9054906101000a900473ffffffffffffffffffffffffffffffffffffffff1673ffffffffffffffffffffffffffffffffffffffff1673ffffffffffffffffffffffffffffffffffffffff168152602001600282015f9054906101000a900473ffffffffffffffffffffffffffffffffffffffff1673ffffffffffffffffffffffffffffffffffffffff1673ffffffffffffffffffffffffffffffffffffffff16815260200160038201548152602001600482018054610eeb90612dc2565b80601f0160208091040260200160405190810160405280929190818152602001828054610f1790612dc2565b8015610f625780601f10610f3957610100808354040283529160200191610f62565b820191905f5260205f20905b815481529060010190602001808311610f4557829003601f168201915b50505050508152602001600582018054610f7b90612dc2565b80601f0160208091040260200160405190810160405280929190818152602001828054610fa790612dc2565b8015610ff25780601f10610fc957610100808354040283529160200191610ff2565b820191905f5260205f20905b815481529060010190602001808311610fd557829003601f168201915b50505050508152602001600682015f9054906101000a900460ff161515151581526020016006820160019054906101000a900460ff16600481111561103a57611039612785565b5b600481111561104c5761104b612785565b5b81526020016006820160029054906101000a900473ffffffffffffffffffffffffffffffffffffffff1673ffffffffffffffffffffffffffffffffffffffff1673ffffffffffffffffffffffffffffffffffffffff1681526020016007820180546110b690612dc2565b80601f01602080910402602001604051908101604052809291908181526020018280546110e290612dc2565b801561112d5780601f106111045761010080835404028352916020019161112d565b820191905f5260205f20905b81548152906001019060200180831161111057829003601f168201915b505050505081526020016008820154815260200160098201548152505085838061115690612eb2565b94508151811061116957611168612d68565b5b60200260200101819052505b806001019050610db5565b5050505090565b5f600280549050905090565b5f5f9054906101000a900473ffffffffffffffffffffffffffffffffffffffff1673ffffffffffffffffffffffffffffffffffffffff163373ffffffffffffffffffffffffffffffffffffffff1614611218576040517f5fc483c500000000000000000000000000000000000000000000000000000000815260040160405180910390fd5b5f600261122483612488565b8154811061123557611234612d68565b5b905f5260205f2090600a020190506001600481111561125757611256612785565b5b8160060160019054906101000a900460ff16600481111561127b5761127a612785565b5b146112d15760018160060160019054906101000a900460ff166040517ff924664d0000000000000000000000000000000000000000000000000000000081526004016112c8929190612f08565b60405180910390fd5b8060030154471015611320574781600301546040517fcf479181000000000000000000000000000000000000000000000000000000008152600401611317929190612f2f565b60405180910390fd5b60028160060160016101000a81548160ff0219169083600481111561134857611347612785565b5b02179055504281600901819055505f816002015f9054906101000a900473ffffffffffffffffffffffffffffffffffffffff1673ffffffffffffffffffffffffffffffffffffffff1682600301546040516113a290612f83565b5f6040518083038185875af1925050503d805f81146113dc576040519150601f19603f3d011682016040523d82523d5f602084013e6113e1565b606091505b505090508061142d574782600301546040517fcf479181000000000000000000000000000000000000000000000000000000008152600401611424929190612f2f565b60405180910390fd5b3373ffffffffffffffffffffffffffffffffffffffff16837fb98e60b39b21c12eaf272178a4b9ae91ae7b4c66bd80c976aaf2a0a02d6f996484600301546040516114789190612bc6565b60405180910390a3505050565b5f5f6114928787876124da565b9050600280549050915060026040518061018001604052808481526020013373ffffffffffffffffffffffffffffffffffffffff1681526020018a73ffffffffffffffffffffffffffffffffffffffff16815260200189815260200188888080601f0160208091040260200160405190810160405280939291908181526020018383808284375f81840152601f19601f82011690508083019250505050505050815260200186868080601f0160208091040260200160405190810160405280939291908181526020018383808284375f81840152601f19601f82011690508083019250505050505050815260200183151581526020015f600481111561159b5761159a612785565b5b81526020015f73ffffffffffffffffffffffffffffffffffffffff16815260200160405180602001604052805f815250815260200142815260200142815250908060018154018082558091505060019003905f5260205f2090600a02015f909190919091505f820151815f01556020820151816001015f6101000a81548173ffffffffffffffffffffffffffffffffffffffff021916908373ffffffffffffffffffffffffffffffffffffffff1602179055506040820151816002015f6101000a81548173ffffffffffffffffffffffffffffffffffffffff021916908373ffffffffffffffffffffffffffffffffffffffff1602179055506060820151816003015560808201518160040190816116b39190613148565b5060a08201518160050190816116c99190613148565b5060c0820151816006015f6101000a81548160ff02191690831515021790555060e08201518160060160016101000a81548160ff0219169083600481111561171457611713612785565b5b02179055506101008201518160060160026101000a81548173ffffffffffffffffffffffffffffffffffffffff021916908373ffffffffffffffffffffffffffffffffffffffff1602179055506101208201518160070190816117779190613148565b506101408201518160080155610160820151816009015550508773ffffffffffffffffffffffffffffffffffffffff163373ffffffffffffffffffffffffffffffffffffffff16837f28d784f7fe69a1e130fc408de40b792f79bd050bbc3f189dd78a41cbeaf7735f8a8a8a8a8a896040516117f896959493929190613261565b60405180910390a4509695505050505050565b5f5f9054906101000a900473ffffffffffffffffffffffffffffffffffffffff1681565b5f600261183b83612488565b8154811061184c5761184b612d68565b5b905f5260205f2090600a020190503373ffffffffffffffffffffffffffffffffffffffff16816001015f9054906101000a900473ffffffffffffffffffffffffffffffffffffffff1673ffffffffffffffffffffffffffffffffffffffff16146118e2576040517f6f3690f600000000000000000000000000000000000000000000000000000000815260040160405180910390fd5b5f60048111156118f5576118f4612785565b5b8160060160019054906101000a900460ff16600481111561191957611918612785565b5b1461196e575f8160060160019054906101000a900460ff166040517ff924664d000000000000000000000000000000000000000000000000000000008152600401611965929190612f08565b60405180910390fd5b60048160060160016101000a81548160ff0219169083600481111561199657611995612785565b5b02179055504281600901819055503373ffffffffffffffffffffffffffffffffffffffff16827f79334ff99c7f8593acd83817c4d73f0dedc07a3e6574d2bb1015b33d140f7e2560405160405180910390a35050565b5f5f9054906101000a900473ffffffffffffffffffffffffffffffffffffffff1673ffffffffffffffffffffffffffffffffffffffff163373ffffffffffffffffffffffffffffffffffffffff1614611a71576040517f5fc483c500000000000000000000000000000000000000000000000000000000815260040160405180910390fd5b5f6001549050816001819055507f4f3d5fbe9be88b3880b488c3471b39c304d9375db993fb41fcfe851eafb57ae78183604051611aaf929190612f2f565b60405180910390a15050565b60035f3373ffffffffffffffffffffffffffffffffffffffff1673ffffffffffffffffffffffffffffffffffffffff1681526020019081526020015f205f9054906101000a900460ff16611b3b576040517ff87c866900000000000000000000000000000000000000000000000000000000815260040160405180910390fd5b5f6002611b4783612488565b81548110611b5857611b57612d68565b5b905f5260205f2090600a020190505f6004811115611b7957611b78612785565b5b8160060160019054906101000a900460ff166004811115611b9d57611b9c612785565b5b14611bf2575f8160060160019054906101000a900460ff166040517ff924664d000000000000000000000000000000000000000000000000000000008152600401611be9929190612f08565b60405180910390fd5b60018160060160016101000a81548160ff02191690836004811115611c1a57611c19612785565b5b0217905550338160060160026101000a81548173ffffffffffffffffffffffffffffffffffffffff021916908373ffffffffffffffffffffffffffffffffffffffff1602179055504281600901819055503373ffffffffffffffffffffffffffffffffffffffff16827fe162d266e792d6e0f285a2273576dbe93b2fbcd9499160acece9637353977cc360405160405180910390a35050565b60015481565b5f3403611d00574760016040517fcf479181000000000000000000000000000000000000000000000000000000008152600401611cf79291906132ef565b60405180910390fd5b3373ffffffffffffffffffffffffffffffffffffffff167f543ba50a5eec5e6178218e364b1d0f396157b3c8fa278522c2cb7fd99407d47434604051611d469190612bc6565b60405180910390a2565b60035f3373ffffffffffffffffffffffffffffffffffffffff1673ffffffffffffffffffffffffffffffffffffffff1681526020019081526020015f205f9054906101000a900460ff16611dd0576040517ff87c866900000000000000000000000000000000000000000000000000000000815260040160405180910390fd5b5f8282905003611e0c576040517fdb72b02300000000000000000000000000000000000000000000000000000000815260040160405180910390fd5b5f6002611e1885612488565b81548110611e2957611e28612d68565b5b905f5260205f2090600a020190505f6004811115611e4a57611e49612785565b5b8160060160019054906101000a900460ff166004811115611e6e57611e6d612785565b5b14611ec3575f8160060160019054906101000a900460ff166040517ff924664d000000000000000000000000000000000000000000000000000000008152600401611eba929190612f08565b60405180910390fd5b60038160060160016101000a81548160ff02191690836004811115611eeb57611eea612785565b5b0217905550338160060160026101000a81548173ffffffffffffffffffffffffffffffffffffffff021916908373ffffffffffffffffffffffffffffffffffffffff1602179055508282826007019182611f46929190613320565b504281600901819055503373ffffffffffffffffffffffffffffffffffffffff16847f0356f347c980667c00cb19d90f81a18335b569a541e9e8bbf0dab74df055e50e8585604051611f999291906133ed565b60405180910390a350505050565b60605f60028054905090505f5f5f90505b82811015612033575f6004811115611fd357611fd2612785565b5b60028281548110611fe757611fe6612d68565b5b905f5260205f2090600a020160060160019054906101000a900460ff16600481111561201657612015612785565b5b03612028578161202590612eb2565b91505b806001019050611fb8565b508067ffffffffffffffff81111561204e5761204d612df2565b5b60405190808252806020026020018201604052801561208757816020015b61207461251c565b81526020019060019003908161206c5790505b5092505f5f5f90505b83811015612481575f60048111156120ab576120aa612785565b5b600282815481106120bf576120be612d68565b5b905f5260205f2090600a020160060160019054906101000a900460ff1660048111156120ee576120ed612785565b5b03612476576002818154811061210757612106612d68565b5b905f5260205f2090600a0201604051806101800160405290815f8201548152602001600182015f9054906101000a900473ffffffffffffffffffffffffffffffffffffffff1673ffffffffffffffffffffffffffffffffffffffff1673ffffffffffffffffffffffffffffffffffffffff168152602001600282015f9054906101000a900473ffffffffffffffffffffffffffffffffffffffff1673ffffffffffffffffffffffffffffffffffffffff1673ffffffffffffffffffffffffffffffffffffffff168152602001600382015481526020016004820180546121ec90612dc2565b80601f016020809104026020016040519081016040528092919081815260200182805461221890612dc2565b80156122635780601f1061223a57610100808354040283529160200191612263565b820191905f5260205f20905b81548152906001019060200180831161224657829003601f168201915b5050505050815260200160058201805461227c90612dc2565b80601f01602080910402602001604051908101604052809291908181526020018280546122a890612dc2565b80156122f35780601f106122ca576101008083540402835291602001916122f3565b820191905f5260205f20905b8154815290600101906020018083116122d657829003601f168201915b50505050508152602001600682015f9054906101000a900460ff161515151581526020016006820160019054906101000a900460ff16600481111561233b5761233a612785565b5b600481111561234d5761234c612785565b5b81526020016006820160029054906101000a900473ffffffffffffffffffffffffffffffffffffffff1673ffffffffffffffffffffffffffffffffffffffff1673ffffffffffffffffffffffffffffffffffffffff1681526020016007820180546123b790612dc2565b80601f01602080910402602001604051908101604052809291908181526020018280546123e390612dc2565b801561242e5780601f106124055761010080835404028352916020019161242e565b820191905f5260205f20905b81548152906001019060200180831161241157829003601f168201915b505050505081526020016008820154815260200160098201548152505085838061245790612eb2565b94508151811061246a57612469612d68565b5b60200260200101819052505b806001019050612090565b5050505090565b5f60028054905082106124d257816040517f539e19e40000000000000000000000000000000000000000000000000000000081526004016124c99190612bc6565b60405180910390fd5b819050919050565b5f5f84036124eb5760019050612515565b5f83839050036124fe5760019050612515565b6001548411156125115760019050612515565b5f90505b9392505050565b6040518061018001604052805f81526020015f73ffffffffffffffffffffffffffffffffffffffff1681526020015f73ffffffffffffffffffffffffffffffffffffffff1681526020015f815260200160608152602001606081526020015f151581526020015f600481111561259557612594612785565b5b81526020015f73ffffffffffffffffffffffffffffffffffffffff168152602001606081526020015f81526020015f81525090565b5f5ffd5b5f5ffd5b5f73ffffffffffffffffffffffffffffffffffffffff82169050919050565b5f6125fb826125d2565b9050919050565b61260b816125f1565b8114612615575f5ffd5b50565b5f8135905061262681612602565b92915050565b5f60208284031215612641576126406125ca565b5b5f61264e84828501612618565b91505092915050565b5f8115159050919050565b61266b81612657565b82525050565b5f6020820190506126845f830184612662565b92915050565b5f819050919050565b61269c8161268a565b81146126a6575f5ffd5b50565b5f813590506126b781612693565b92915050565b5f602082840312156126d2576126d16125ca565b5b5f6126df848285016126a9565b91505092915050565b6126f18161268a565b82525050565b612700816125f1565b82525050565b5f81519050919050565b5f82825260208201905092915050565b8281835e5f83830152505050565b5f601f19601f8301169050919050565b5f61274882612706565b6127528185612710565b9350612762818560208601612720565b61276b8161272e565b840191505092915050565b61277f81612657565b82525050565b7f4e487b71000000000000000000000000000000000000000000000000000000005f52602160045260245ffd5b600581106127c3576127c2612785565b5b50565b5f8190506127d3826127b2565b919050565b5f6127e2826127c6565b9050919050565b6127f2816127d8565b82525050565b5f61018083015f83015161280e5f8601826126e8565b50602083015161282160208601826126f7565b50604083015161283460408601826126f7565b50606083015161284760608601826126e8565b506080830151848203608086015261285f828261273e565b91505060a083015184820360a0860152612879828261273e565b91505060c083015161288e60c0860182612776565b5060e08301516128a160e08601826127e9565b506101008301516128b66101008601826126f7565b506101208301518482036101208601526128d0828261273e565b9150506101408301516128e76101408601826126e8565b506101608301516128fc6101608601826126e8565b508091505092915050565b5f6020820190508181035f83015261291f81846127f8565b905092915050565b5f5f6040838503121561293d5761293c6125ca565b5b5f61294a858286016126a9565b925050602061295b858286016126a9565b9150509250929050565b5f81519050919050565b5f82825260208201905092915050565b5f819050602082019050919050565b5f61018083015f8301516129a45f8601826126e8565b5060208301516129b760208601826126f7565b5060408301516129ca60408601826126f7565b5060608301516129dd60608601826126e8565b50608083015184820360808601526129f5828261273e565b91505060a083015184820360a0860152612a0f828261273e565b91505060c0830151612a2460c0860182612776565b5060e0830151612a3760e08601826127e9565b50610100830151612a4c6101008601826126f7565b50610120830151848203610120860152612a66828261273e565b915050610140830151612a7d6101408601826126e8565b50610160830151612a926101608601826126e8565b508091505092915050565b5f612aa8838361298e565b905092915050565b5f602082019050919050565b5f612ac682612965565b612ad0818561296f565b935083602082028501612ae28561297f565b805f5b85811015612b1d5784840389528151612afe8582612a9d565b9450612b0983612ab0565b925060208a01995050600181019050612ae5565b50829750879550505050505092915050565b5f6020820190508181035f830152612b478184612abc565b905092915050565b612b5881612657565b8114612b62575f5ffd5b50565b5f81359050612b7381612b4f565b92915050565b5f5f60408385031215612b8f57612b8e6125ca565b5b5f612b9c85828601612618565b9250506020612bad85828601612b65565b9150509250929050565b612bc08161268a565b82525050565b5f602082019050612bd95f830184612bb7565b92915050565b5f5ffd5b5f5ffd5b5f5ffd5b5f5f83601f840112612c0057612bff612bdf565b5b8235905067ffffffffffffffff811115612c1d57612c1c612be3565b5b602083019150836001820283011115612c3957612c38612be7565b5b9250929050565b5f5f5f5f5f5f60808789031215612c5a57612c596125ca565b5b5f612c6789828a01612618565b9650506020612c7889828a016126a9565b955050604087013567ffffffffffffffff811115612c9957612c986125ce565b5b612ca589828a01612beb565b9450945050606087013567ffffffffffffffff811115612cc857612cc76125ce565b5b612cd489828a01612beb565b92509250509295509295509295565b612cec816125f1565b82525050565b5f602082019050612d055f830184612ce3565b92915050565b5f5f5f60408486031215612d2257612d216125ca565b5b5f612d2f868287016126a9565b935050602084013567ffffffffffffffff811115612d5057612d4f6125ce565b5b612d5c86828701612beb565b92509250509250925092565b7f4e487b71000000000000000000000000000000000000000000000000000000005f52603260045260245ffd5b7f4e487b71000000000000000000000000000000000000000000000000000000005f52602260045260245ffd5b5f6002820490506001821680612dd957607f821691505b602082108103612dec57612deb612d95565b5b50919050565b7f4e487b71000000000000000000000000000000000000000000000000000000005f52604160045260245ffd5b7f4e487b71000000000000000000000000000000000000000000000000000000005f52601160045260245ffd5b5f612e568261268a565b9150612e618361268a565b9250828203905081811115612e7957612e78612e1f565b5b92915050565b5f612e898261268a565b9150612e948361268a565b9250828201905080821115612eac57612eab612e1f565b5b92915050565b5f612ebc8261268a565b91507fffffffffffffffffffffffffffffffffffffffffffffffffffffffffffffffff8203612eee57612eed612e1f565b5b600182019050919050565b612f02816127d8565b82525050565b5f604082019050612f1b5f830185612ef9565b612f286020830184612ef9565b9392505050565b5f604082019050612f425f830185612bb7565b612f4f6020830184612bb7565b9392505050565b5f81905092915050565b50565b5f612f6e5f83612f56565b9150612f7982612f60565b5f82019050919050565b5f612f8d82612f63565b9150819050919050565b5f819050815f5260205f209050919050565b5f6020601f8301049050919050565b5f82821b905092915050565b5f60088302612ff37fffffffffffffffffffffffffffffffffffffffffffffffffffffffffffffffff82612fb8565b612ffd8683612fb8565b95508019841693508086168417925050509392505050565b5f819050919050565b5f61303861303361302e8461268a565b613015565b61268a565b9050919050565b5f819050919050565b6130518361301e565b61306561305d8261303f565b848454612fc4565b825550505050565b5f5f905090565b61307c61306d565b613087818484613048565b505050565b5f5b828110156130ad576130a25f828401613074565b60018101905061308e565b505050565b601f82111561310057828211156130ff576130cc81612f97565b6130d583612fa9565b6130de85612fa9565b60208610156130eb575f90505b8083016130fa8284038261308c565b505050505b5b505050565b5f82821c905092915050565b5f6131205f1984600802613105565b1980831691505092915050565b5f6131388383613111565b9150826002028217905092915050565b61315182612706565b67ffffffffffffffff81111561316a57613169612df2565b5b6131748254612dc2565b61317f8282856130b2565b5f60209050601f8311600181146131b0575f841561319e578287015190505b6131a8858261312d565b86555061320f565b601f1984166131be86612f97565b5f5b828110156131e5578489015182556001820191506020850194506020810190506131c0565b8683101561320257848901516131fe601f891682613111565b8355505b6001600288020188555050505b505050505050565b5f82825260208201905092915050565b828183375f83830152505050565b5f6132408385613217565b935061324d838584613227565b6132568361272e565b840190509392505050565b5f6080820190506132745f830189612bb7565b8181036020830152613287818789613235565b9050818103604083015261329c818587613235565b90506132ab6060830184612662565b979650505050505050565b5f819050919050565b5f6132d96132d46132cf846132b6565b613015565b61268a565b9050919050565b6132e9816132bf565b82525050565b5f6040820190506133025f830185612bb7565b61330f60208301846132e0565b9392505050565b5f82905092915050565b61332a8383613316565b67ffffffffffffffff81111561334357613342612df2565b5b61334d8254612dc2565b6133588282856130b2565b5f601f831160018114613385575f8415613373578287013590505b61337d858261312d565b8655506133e4565b601f19841661339386612f97565b5f5b828110156133ba57848901358255600182019150602085019450602081019050613395565b868310156133d757848901356133d3601f891682613111565b8355505b6001600288020188555050505b50505050505050565b5f6020820190508181035f830152613406818486613235565b9050939250505056fea26469706673582212208cc103494dc8511249c2037e010220f4f48dff35ee5d430dd59ca30d7e258a0364736f6c63430008210033","linkReferences":{}},"methodIdentifiers":{"approveExpense(uint256)":"b579e7f1","auditors(address)":"47f9aa9f","cancelExpense(uint256)":"a6fa8a3a","depositFunds()":"e2c41dbc","executeExpense(uint256)":"800cbe97","getExpense(uint256)":"735e5db6","getExpenses(uint256,uint256)":"744c57f0","getFlaggedExpenses()":"77a6ccf2","getPendingExpenses()":"facab3d8","largeAmountThreshold()":"cf76fa0f","owner()":"8da5cb5b","rejectExpense(uint256,string)":"f624afc6","setAuditor(address,bool)":"7795024f","setLargeAmountThreshold(uint256)":"a71f1653","submitExpense(address,uint256,string,string)":"82dad462","totalExpenses()":"7bd35af8"},"id":19}